{
  "_format": "hh-sol-artifact-1",
  "contractName": "MarketPlace",
  "sourceName": "contracts/marketplace.sol",
  "abi": [
    {
      "inputs": [
        {
          "internalType": "address",
          "name": "_auctionContract",
          "type": "address"
        }
      ],
      "stateMutability": "nonpayable",
      "type": "constructor"
    },
    {
      "anonymous": false,
      "inputs": [
        {
          "indexed": true,
          "internalType": "uint256",
          "name": "tokenId",
          "type": "uint256"
        },
        {
          "indexed": true,
          "internalType": "uint256",
          "name": "price",
          "type": "uint256"
        }
      ],
      "name": "DirectSaleCreated",
      "type": "event"
    },
    {
      "anonymous": false,
      "inputs": [
        {
          "indexed": true,
          "internalType": "uint256",
          "name": "tokenId",
          "type": "uint256"
        },
        {
          "indexed": true,
          "internalType": "uint256",
          "name": "price",
          "type": "uint256"
        }
      ],
      "name": "DirectSaleDone",
      "type": "event"
    },
    {
      "anonymous": false,
      "inputs": [
        {
          "indexed": true,
          "internalType": "uint256",
          "name": "tokenId",
          "type": "uint256"
        }
      ],
      "name": "OrderCompleted",
      "type": "event"
    },
    {
      "anonymous": false,
      "inputs": [
        {
          "indexed": true,
          "internalType": "uint256",
          "name": "tokenId",
          "type": "uint256"
        }
      ],
      "name": "OrderInTransit",
      "type": "event"
    },
    {
      "inputs": [
        {
          "internalType": "uint256",
          "name": "_tokenId",
          "type": "uint256"
        }
      ],
      "name": "cancelAuction",
      "outputs": [],
      "stateMutability": "nonpayable",
      "type": "function"
    },
    {
      "inputs": [
        {
          "internalType": "uint256",
          "name": "_tokenId",
          "type": "uint256"
        },
        {
          "internalType": "uint256",
          "name": "_reservePrice",
          "type": "uint256"
        }
      ],
      "name": "changeReservePrice",
      "outputs": [],
      "stateMutability": "nonpayable",
      "type": "function"
    },
    {
      "inputs": [
        {
          "internalType": "address",
          "name": "_tokenContract",
          "type": "address"
        },
        {
          "internalType": "uint256",
          "name": "_tokenId",
          "type": "uint256"
        },
        {
          "internalType": "uint256",
          "name": "_duration",
          "type": "uint256"
        },
        {
          "internalType": "uint256",
          "name": "_reservePrice",
          "type": "uint256"
        },
        {
          "internalType": "address",
          "name": "_sellerFundsRecipient",
          "type": "address"
        },
        {
          "internalType": "uint256",
          "name": "_startTime",
          "type": "uint256"
        }
      ],
      "name": "createAuction",
      "outputs": [],
      "stateMutability": "nonpayable",
      "type": "function"
    },
    {
      "inputs": [
        {
          "internalType": "uint256",
          "name": "_tokenId",
          "type": "uint256"
        },
        {
          "internalType": "uint256",
          "name": "_reservePrice",
          "type": "uint256"
        }
      ],
      "name": "createDirectSaleItem",
      "outputs": [],
      "stateMutability": "nonpayable",
      "type": "function"
    },
    {
      "inputs": [
        {
          "internalType": "uint256",
          "name": "_tokenId",
          "type": "uint256"
        }
      ],
      "name": "orderCompleted",
      "outputs": [],
      "stateMutability": "nonpayable",
      "type": "function"
    },
    {
      "inputs": [
        {
          "internalType": "uint256",
          "name": "_tokenId",
          "type": "uint256"
        }
      ],
      "name": "placeBid",
      "outputs": [],
      "stateMutability": "payable",
      "type": "function"
    },
    {
      "inputs": [
        {
          "internalType": "uint256",
          "name": "_tokenId",
          "type": "uint256"
        }
      ],
      "name": "setOrderInTransit",
      "outputs": [],
      "stateMutability": "nonpayable",
      "type": "function"
    },
    {
      "inputs": [
        {
          "internalType": "address",
          "name": "_tokenContract",
          "type": "address"
        }
      ],
      "name": "setTokenContract",
      "outputs": [],
      "stateMutability": "nonpayable",
      "type": "function"
    },
    {
      "inputs": [
        {
          "internalType": "uint256",
          "name": "_tokenId",
          "type": "uint256"
        }
      ],
      "name": "settleAuction",
      "outputs": [],
      "stateMutability": "payable",
      "type": "function"
    },
    {
      "inputs": [
        {
          "internalType": "uint256",
          "name": "_tokenId",
          "type": "uint256"
        }
      ],
      "name": "settleDirectSale",
      "outputs": [],
      "stateMutability": "payable",
      "type": "function"
    },
    {
      "inputs": [
        {
          "internalType": "address",
          "name": "_admin",
          "type": "address"
        }
      ],
      "name": "updateAdmin",
      "outputs": [],
      "stateMutability": "nonpayable",
      "type": "function"
    }
  ],
  "bytecode": "0x60806040523480156200001157600080fd5b5060405162001d3a38038062001d3a833981810160405281019062000037919062000132565b600160008190555080600160006101000a81548173ffffffffffffffffffffffffffffffffffffffff021916908373ffffffffffffffffffffffffffffffffffffffff16021790555033600360006101000a81548173ffffffffffffffffffffffffffffffffffffffff021916908373ffffffffffffffffffffffffffffffffffffffff1602179055505062000164565b600080fd5b600073ffffffffffffffffffffffffffffffffffffffff82169050919050565b6000620000fa82620000cd565b9050919050565b6200010c81620000ed565b81146200011857600080fd5b50565b6000815190506200012c8162000101565b92915050565b6000602082840312156200014b576200014a620000c8565b5b60006200015b848285016200011b565b91505092915050565b611bc680620001746000396000f3fe60806040526004361061009c5760003560e01c80636ceae271116100645780636ceae2711461016157806396b5a7551461017d5780639979ef45146101a6578063bbcd5bbe146101c2578063d9ec787d146101eb578063e2f273bd146102145761009c565b806306fdd531146100a15780630acf1ad9146100ca57806317a273a2146100f35780632e9936111461011c57806364f1df3314610138575b600080fd5b3480156100ad57600080fd5b506100c860048036038101906100c391906115f2565b61023d565b005b3480156100d657600080fd5b506100f160048036038101906100ec919061167f565b610570565b005b3480156100ff57600080fd5b5061011a600480360381019061011591906116ac565b6106c8565b005b6101366004803603810190610131919061167f565b610a2c565b005b34801561014457600080fd5b5061015f600480360381019061015a919061167f565b610c7c565b005b61017b6004803603810190610176919061167f565b610e7f565b005b34801561018957600080fd5b506101a4600480360381019061019f919061167f565b6110bb565b005b6101c060048036038101906101bb919061167f565b611210565b005b3480156101ce57600080fd5b506101e960048036038101906101e491906116ec565b6112f9565b005b3480156101f757600080fd5b50610212600480360381019061020d91906116ac565b61133d565b005b34801561022057600080fd5b5061023b600480360381019061023691906116ec565b611465565b005b60026000541415610283576040517f08c379a000000000000000000000000000000000000000000000000000000000815260040161027a90611776565b60405180910390fd5b6002600081905550600015156004600087815260200190815260200160002060020160019054906101000a900460ff161515146102f5576040517f08c379a00000000000000000000000000000000000000000000000000000000081526004016102ec906117e2565b60405180910390fd5b600115156004600087815260200190815260200160002060020160009054906101000a900460ff1615151415610360576040517f08c379a00000000000000000000000000000000000000000000000000000000081526004016103579061184e565b60405180910390fd5b600160009054906101000a900473ffffffffffffffffffffffffffffffffffffffff1673ffffffffffffffffffffffffffffffffffffffff166306fdd5318787878787876040518763ffffffff1660e01b81526004016103c59695949392919061188c565b600060405180830381600087803b1580156103df57600080fd5b505af11580156103f3573d6000803e3d6000fd5b50505050600260009054906101000a900473ffffffffffffffffffffffffffffffffffffffff1673ffffffffffffffffffffffffffffffffffffffff16636352211e866040518263ffffffff1660e01b815260040161045291906118ed565b602060405180830381865afa15801561046f573d6000803e3d6000fd5b505050506040513d601f19601f82011682018060405250810190610493919061191d565b6004600087815260200190815260200160002060000160006101000a81548173ffffffffffffffffffffffffffffffffffffffff021916908373ffffffffffffffffffffffffffffffffffffffff16021790555082600460008781526020019081526020016000206001018190555060016004600087815260200190815260200160002060020160006101000a81548160ff02191690831515021790555060006004600087815260200190815260200160002060020160016101000a81548160ff0219169083151502179055506001600081905550505050505050565b600260005414156105b6576040517f08c379a00000000000000000000000000000000000000000000000000000000081526004016105ad90611776565b60405180910390fd5b60026000819055506004600082815260200190815260200160002060000160009054906101000a900473ffffffffffffffffffffffffffffffffffffffff1673ffffffffffffffffffffffffffffffffffffffff163373ffffffffffffffffffffffffffffffffffffffff161461062c57600080fd5b60006004600083815260200190815260200160002060030160000160006101000a81548160ff02191690831515021790555060016004600083815260200190815260200160002060030160000160016101000a81548160ff021916908315150217905550807f07232afd803c786d2eada771790c0ff2fc5e7221909ae5c06661697d8fd9f8cb60405160405180910390a2600160008190555050565b6002600054141561070e576040517f08c379a000000000000000000000000000000000000000000000000000000000815260040161070590611776565b60405180910390fd5b6002600081905550600015156004600084815260200190815260200160002060020160009054906101000a900460ff16151514610780576040517f08c379a000000000000000000000000000000000000000000000000000000000815260040161077790611996565b60405180910390fd5b3373ffffffffffffffffffffffffffffffffffffffff16600260009054906101000a900473ffffffffffffffffffffffffffffffffffffffff1673ffffffffffffffffffffffffffffffffffffffff16636352211e846040518263ffffffff1660e01b81526004016107f291906118ed565b602060405180830381865afa15801561080f573d6000803e3d6000fd5b505050506040513d601f19601f82011682018060405250810190610833919061191d565b73ffffffffffffffffffffffffffffffffffffffff1614610889576040517f08c379a000000000000000000000000000000000000000000000000000000000815260040161088090611a02565b60405180910390fd5b600260009054906101000a900473ffffffffffffffffffffffffffffffffffffffff1673ffffffffffffffffffffffffffffffffffffffff16636352211e836040518263ffffffff1660e01b81526004016108e491906118ed565b602060405180830381865afa158015610901573d6000803e3d6000fd5b505050506040513d601f19601f82011682018060405250810190610925919061191d565b6004600084815260200190815260200160002060000160006101000a81548173ffffffffffffffffffffffffffffffffffffffff021916908373ffffffffffffffffffffffffffffffffffffffff16021790555080600460008481526020019081526020016000206001018190555060006004600084815260200190815260200160002060020160006101000a81548160ff02191690831515021790555060016004600084815260200190815260200160002060020160016101000a81548160ff02191690831515021790555080827f620e9df2dffe75165edab8da0880bce033fd2b04ce54012be0379a724abb007260405160405180910390a360016000819055505050565b60026000541415610a72576040517f08c379a0000000000000000000000000000000000000000000000000000000008152600401610a6990611776565b60405180910390fd5b6002600081905550600160009054906101000a900473ffffffffffffffffffffffffffffffffffffffff1673ffffffffffffffffffffffffffffffffffffffff16635138b08c600260009054906101000a900473ffffffffffffffffffffffffffffffffffffffff16836040518363ffffffff1660e01b8152600401610af9929190611a22565b600060405180830381600087803b158015610b1357600080fd5b505af1158015610b27573d6000803e3d6000fd5b50505050600160009054906101000a900473ffffffffffffffffffffffffffffffffffffffff1673ffffffffffffffffffffffffffffffffffffffff16638f288644826040518263ffffffff1660e01b8152600401610b8691906118ed565b602060405180830381865afa158015610ba3573d6000803e3d6000fd5b505050506040513d601f19601f82011682018060405250810190610bc79190611a60565b600460008381526020019081526020016000206001018190555060006004600083815260200190815260200160002060020160006101000a81548160ff02191690831515021790555060006004600083815260200190815260200160002060020160016101000a81548160ff02191690831515021790555060016004600083815260200190815260200160002060030160000160006101000a81548160ff021916908315150217905550600160008190555050565b60026000541415610cc2576040517f08c379a0000000000000000000000000000000000000000000000000000000008152600401610cb990611776565b60405180910390fd5b6002600081905550600360009054906101000a900473ffffffffffffffffffffffffffffffffffffffff1673ffffffffffffffffffffffffffffffffffffffff163373ffffffffffffffffffffffffffffffffffffffff1614610d2457600080fd5b60006004600083815260200190815260200160002060030160000160006101000a81548160ff02191690831515021790555060006004600083815260200190815260200160002060030160000160016101000a81548160ff02191690831515021790555060016004600083815260200190815260200160002060030160000160026101000a81548160ff021916908315150217905550600160009054906101000a900473ffffffffffffffffffffffffffffffffffffffff1673ffffffffffffffffffffffffffffffffffffffff16634d68282f826040518263ffffffff1660e01b8152600401610e1591906118ed565b600060405180830381600087803b158015610e2f57600080fd5b505af1158015610e43573d6000803e3d6000fd5b50505050807f02a7d4d9472af7118644884b9a0ee443540c0027e938dd0aa35be8ecbe946c0a60405160405180910390a2600160008190555050565b60026000541415610ec5576040517f08c379a0000000000000000000000000000000000000000000000000000000008152600401610ebc90611776565b60405180910390fd5b600260008190555060046000828152602001908152602001600020600101543414610f25576040517f08c379a0000000000000000000000000000000000000000000000000000000008152600401610f1c90611ad9565b60405180910390fd5b60006004600083815260200190815260200160002060020160006101000a81548160ff02191690831515021790555060006004600083815260200190815260200160002060020160016101000a81548160ff02191690831515021790555060016004600083815260200190815260200160002060030160000160006101000a81548160ff02191690831515021790555060006004600083815260200190815260200160002060000160009054906101000a900473ffffffffffffffffffffffffffffffffffffffff169050600260009054906101000a900473ffffffffffffffffffffffffffffffffffffffff1673ffffffffffffffffffffffffffffffffffffffff166323b872dd8233856040518463ffffffff1660e01b815260040161104f93929190611af9565b600060405180830381600087803b15801561106957600080fd5b505af115801561107d573d6000803e3d6000fd5b5050505034827ff07f7b091257009fe8d145d95c8cb6acf6f80ba31703c72937c0ac36e8382fd560405160405180910390a350600160008190555050565b60026000541415611101576040517f08c379a00000000000000000000000000000000000000000000000000000000081526004016110f890611776565b60405180910390fd5b6002600081905550600160009054906101000a900473ffffffffffffffffffffffffffffffffffffffff1673ffffffffffffffffffffffffffffffffffffffff1663859b97fe600260009054906101000a900473ffffffffffffffffffffffffffffffffffffffff16836040518363ffffffff1660e01b8152600401611188929190611a22565b600060405180830381600087803b1580156111a257600080fd5b505af11580156111b6573d6000803e3d6000fd5b5050505060006004600083815260200190815260200160002060020160006101000a81548160ff02191690831515021790555060006004600083815260200190815260200160002060010181905550600160008190555050565b60026000541415611256576040517f08c379a000000000000000000000000000000000000000000000000000000000815260040161124d90611776565b60405180910390fd5b6002600081905550600160009054906101000a900473ffffffffffffffffffffffffffffffffffffffff1673ffffffffffffffffffffffffffffffffffffffff1663b8bd1b1d3483336040518463ffffffff1660e01b81526004016112bc929190611b30565b6000604051808303818588803b1580156112d557600080fd5b505af11580156112e9573d6000803e3d6000fd5b5050505050600160008190555050565b80600260006101000a81548173ffffffffffffffffffffffffffffffffffffffff021916908373ffffffffffffffffffffffffffffffffffffffff16021790555050565b60026000541415611383576040517f08c379a000000000000000000000000000000000000000000000000000000000815260040161137a90611776565b60405180910390fd5b6002600081905550600160009054906101000a900473ffffffffffffffffffffffffffffffffffffffff1673ffffffffffffffffffffffffffffffffffffffff1663cbe98dba600260009054906101000a900473ffffffffffffffffffffffffffffffffffffffff1684846040518463ffffffff1660e01b815260040161140c93929190611b59565b600060405180830381600087803b15801561142657600080fd5b505af115801561143a573d6000803e3d6000fd5b5050505080600460008481526020019081526020016000206001018190555060016000819055505050565b600260005414156114ab576040517f08c379a00000000000000000000000000000000000000000000000000000000081526004016114a290611776565b60405180910390fd5b6002600081905550600360009054906101000a900473ffffffffffffffffffffffffffffffffffffffff1673ffffffffffffffffffffffffffffffffffffffff163373ffffffffffffffffffffffffffffffffffffffff161461150d57600080fd5b80600360006101000a81548173ffffffffffffffffffffffffffffffffffffffff021916908373ffffffffffffffffffffffffffffffffffffffff160217905550600160008190555050565b600080fd5b600073ffffffffffffffffffffffffffffffffffffffff82169050919050565b60006115898261155e565b9050919050565b6115998161157e565b81146115a457600080fd5b50565b6000813590506115b681611590565b92915050565b6000819050919050565b6115cf816115bc565b81146115da57600080fd5b50565b6000813590506115ec816115c6565b92915050565b60008060008060008060c0878903121561160f5761160e611559565b5b600061161d89828a016115a7565b965050602061162e89828a016115dd565b955050604061163f89828a016115dd565b945050606061165089828a016115dd565b935050608061166189828a016115a7565b92505060a061167289828a016115dd565b9150509295509295509295565b60006020828403121561169557611694611559565b5b60006116a3848285016115dd565b91505092915050565b600080604083850312156116c3576116c2611559565b5b60006116d1858286016115dd565b92505060206116e2858286016115dd565b9150509250929050565b60006020828403121561170257611701611559565b5b6000611710848285016115a7565b91505092915050565b600082825260208201905092915050565b7f5265656e7472616e637947756172643a207265656e7472616e742063616c6c00600082015250565b6000611760601f83611719565b915061176b8261172a565b602082019050919050565b6000602082019050818103600083015261178f81611753565b9050919050565b7f4954454d5f414c52454144595f4f4e5f4449524543545f53414c450000000000600082015250565b60006117cc601b83611719565b91506117d782611796565b602082019050919050565b600060208201905081810360008301526117fb816117bf565b9050919050565b7f41554354494f4e5f414c52454144595f45584953545300000000000000000000600082015250565b6000611838601683611719565b915061184382611802565b602082019050919050565b600060208201905081810360008301526118678161182b565b9050919050565b6118778161157e565b82525050565b611886816115bc565b82525050565b600060c0820190506118a1600083018961186e565b6118ae602083018861187d565b6118bb604083018761187d565b6118c8606083018661187d565b6118d5608083018561186e565b6118e260a083018461187d565b979650505050505050565b6000602082019050611902600083018461187d565b92915050565b60008151905061191781611590565b92915050565b60006020828403121561193357611932611559565b5b600061194184828501611908565b91505092915050565b7f4954454d5f414c52454144595f4f4e5f41554354494f4e000000000000000000600082015250565b6000611980601783611719565b915061198b8261194a565b602082019050919050565b600060208201905081810360008301526119af81611973565b9050919050565b7f4f4e4c595f4f574e45525f43414e5f5055545f4954454d535f4f4e5f53414c45600082015250565b60006119ec602083611719565b91506119f7826119b6565b602082019050919050565b60006020820190508181036000830152611a1b816119df565b9050919050565b6000604082019050611a37600083018561186e565b611a44602083018461187d565b9392505050565b600081519050611a5a816115c6565b92915050565b600060208284031215611a7657611a75611559565b5b6000611a8484828501611a4b565b91505092915050565b7f524553455256455f50524943455f4e4f545f4d45540000000000000000000000600082015250565b6000611ac3601583611719565b9150611ace82611a8d565b602082019050919050565b60006020820190508181036000830152611af281611ab6565b9050919050565b6000606082019050611b0e600083018661186e565b611b1b602083018561186e565b611b28604083018461187d565b949350505050565b6000604082019050611b45600083018561187d565b611b52602083018461186e565b9392505050565b6000606082019050611b6e600083018661186e565b611b7b602083018561187d565b611b88604083018461187d565b94935050505056fea264697066735822122057e738454ce2ba60d38549cfdb03da76076beba96a69ea484186b72c3dfb9a3e64736f6c634300080a0033",
  "linkReferences": {},
  "deployedLinkReferences": {}
}