{
  "_format": "hh-sol-artifact-1",
  "contractName": "MarketPlace",
  "sourceName": "contracts/marketplace.sol",
  "abi": [
    {
      "inputs": [
        {
          "internalType": "address",
          "name": "_auctionContract",
          "type": "address"
        }
      ],
      "stateMutability": "nonpayable",
      "type": "constructor"
    },
    {
      "anonymous": false,
      "inputs": [
        {
          "indexed": true,
          "internalType": "uint256",
          "name": "tokenId",
          "type": "uint256"
        },
        {
          "indexed": true,
          "internalType": "uint256",
          "name": "price",
          "type": "uint256"
        }
      ],
      "name": "DirectSaleCreated",
      "type": "event"
    },
    {
      "anonymous": false,
      "inputs": [
        {
          "indexed": true,
          "internalType": "uint256",
          "name": "tokenId",
          "type": "uint256"
        },
        {
          "indexed": true,
          "internalType": "uint256",
          "name": "price",
          "type": "uint256"
        }
      ],
      "name": "DirectSaleDone",
      "type": "event"
    },
    {
      "anonymous": false,
      "inputs": [
        {
          "indexed": true,
          "internalType": "uint256",
          "name": "tokenId",
          "type": "uint256"
        }
      ],
      "name": "OrderCompleted",
      "type": "event"
    },
    {
      "anonymous": false,
      "inputs": [
        {
          "indexed": true,
          "internalType": "uint256",
          "name": "tokenId",
          "type": "uint256"
        }
      ],
      "name": "OrderInTransit",
      "type": "event"
    },
    {
      "inputs": [
        {
          "internalType": "uint256",
          "name": "_tokenId",
          "type": "uint256"
        }
      ],
      "name": "cancelAuction",
      "outputs": [],
      "stateMutability": "nonpayable",
      "type": "function"
    },
    {
      "inputs": [
        {
          "internalType": "uint256",
          "name": "_tokenId",
          "type": "uint256"
        },
        {
          "internalType": "uint256",
          "name": "_reservePrice",
          "type": "uint256"
        }
      ],
      "name": "changeReservePrice",
      "outputs": [],
      "stateMutability": "nonpayable",
      "type": "function"
    },
    {
      "inputs": [
        {
          "internalType": "address",
          "name": "_tokenContract",
          "type": "address"
        },
        {
          "internalType": "uint256",
          "name": "_tokenId",
          "type": "uint256"
        },
        {
          "internalType": "uint256",
          "name": "_duration",
          "type": "uint256"
        },
        {
          "internalType": "uint256",
          "name": "_reservePrice",
          "type": "uint256"
        },
        {
          "internalType": "address",
          "name": "_sellerFundsRecipient",
          "type": "address"
        },
        {
          "internalType": "uint256",
          "name": "_startTime",
          "type": "uint256"
        }
      ],
      "name": "createAuction",
      "outputs": [],
      "stateMutability": "nonpayable",
      "type": "function"
    },
    {
      "inputs": [
        {
          "internalType": "uint256",
          "name": "_tokenId",
          "type": "uint256"
        },
        {
          "internalType": "uint256",
          "name": "_reservePrice",
          "type": "uint256"
        }
      ],
      "name": "createDirectSaleItem",
      "outputs": [],
      "stateMutability": "nonpayable",
      "type": "function"
    },
    {
      "inputs": [
        {
          "internalType": "uint256",
          "name": "_tokenId",
          "type": "uint256"
        }
      ],
      "name": "orderCompleted",
      "outputs": [],
      "stateMutability": "nonpayable",
      "type": "function"
    },
    {
      "inputs": [
        {
          "internalType": "uint256",
          "name": "_tokenId",
          "type": "uint256"
        }
      ],
      "name": "placeBid",
      "outputs": [],
      "stateMutability": "payable",
      "type": "function"
    },
    {
      "inputs": [
        {
          "internalType": "uint256",
          "name": "_tokenId",
          "type": "uint256"
        }
      ],
      "name": "setOrderInTransit",
      "outputs": [],
      "stateMutability": "nonpayable",
      "type": "function"
    },
    {
      "inputs": [
        {
          "internalType": "address",
          "name": "_tokenContract",
          "type": "address"
        }
      ],
      "name": "setTokenContract",
      "outputs": [],
      "stateMutability": "nonpayable",
      "type": "function"
    },
    {
      "inputs": [
        {
          "internalType": "uint256",
          "name": "_tokenId",
          "type": "uint256"
        }
      ],
      "name": "settleAuction",
      "outputs": [],
      "stateMutability": "payable",
      "type": "function"
    },
    {
      "inputs": [
        {
          "internalType": "uint256",
          "name": "_tokenId",
          "type": "uint256"
        }
      ],
      "name": "settleDirectSale",
      "outputs": [],
      "stateMutability": "payable",
      "type": "function"
    },
    {
      "inputs": [
        {
          "internalType": "address",
          "name": "_admin",
          "type": "address"
        }
      ],
      "name": "updateAdmin",
      "outputs": [],
      "stateMutability": "nonpayable",
      "type": "function"
    }
  ],
  "bytecode": "0x60806040523480156200001157600080fd5b5060405162001cbd38038062001cbd833981810160405281019062000037919062000132565b600160008190555080600160006101000a81548173ffffffffffffffffffffffffffffffffffffffff021916908373ffffffffffffffffffffffffffffffffffffffff16021790555033600360006101000a81548173ffffffffffffffffffffffffffffffffffffffff021916908373ffffffffffffffffffffffffffffffffffffffff1602179055505062000164565b600080fd5b600073ffffffffffffffffffffffffffffffffffffffff82169050919050565b6000620000fa82620000cd565b9050919050565b6200010c81620000ed565b81146200011857600080fd5b50565b6000815190506200012c8162000101565b92915050565b6000602082840312156200014b576200014a620000c8565b5b60006200015b848285016200011b565b91505092915050565b611b4980620001746000396000f3fe60806040526004361061009c5760003560e01c80636ceae271116100645780636ceae2711461016157806396b5a7551461017d5780639979ef45146101a6578063bbcd5bbe146101c2578063d9ec787d146101eb578063e2f273bd146102145761009c565b806306fdd531146100a15780630acf1ad9146100ca57806317a273a2146100f35780632e9936111461011c57806364f1df3314610138575b600080fd5b3480156100ad57600080fd5b506100c860048036038101906100c391906115e1565b61023d565b005b3480156100d657600080fd5b506100f160048036038101906100ec919061166e565b610570565b005b3480156100ff57600080fd5b5061011a6004803603810190610115919061169b565b6106c8565b005b6101366004803603810190610131919061166e565b610a2c565b005b34801561014457600080fd5b5061015f600480360381019061015a919061166e565b610c7c565b005b61017b6004803603810190610176919061166e565b610e7f565b005b34801561018957600080fd5b506101a4600480360381019061019f919061166e565b6110aa565b005b6101c060048036038101906101bb919061166e565b6111ff565b005b3480156101ce57600080fd5b506101e960048036038101906101e491906116db565b6112e8565b005b3480156101f757600080fd5b50610212600480360381019061020d919061169b565b61132c565b005b34801561022057600080fd5b5061023b600480360381019061023691906116db565b611454565b005b60026000541415610283576040517f08c379a000000000000000000000000000000000000000000000000000000000815260040161027a90611765565b60405180910390fd5b6002600081905550600015156004600087815260200190815260200160002060020160019054906101000a900460ff161515146102f5576040517f08c379a00000000000000000000000000000000000000000000000000000000081526004016102ec906117d1565b60405180910390fd5b600115156004600087815260200190815260200160002060020160009054906101000a900460ff1615151415610360576040517f08c379a00000000000000000000000000000000000000000000000000000000081526004016103579061183d565b60405180910390fd5b600160009054906101000a900473ffffffffffffffffffffffffffffffffffffffff1673ffffffffffffffffffffffffffffffffffffffff166306fdd5318787878787876040518763ffffffff1660e01b81526004016103c59695949392919061187b565b600060405180830381600087803b1580156103df57600080fd5b505af11580156103f3573d6000803e3d6000fd5b50505050600260009054906101000a900473ffffffffffffffffffffffffffffffffffffffff1673ffffffffffffffffffffffffffffffffffffffff16636352211e866040518263ffffffff1660e01b815260040161045291906118dc565b602060405180830381865afa15801561046f573d6000803e3d6000fd5b505050506040513d601f19601f82011682018060405250810190610493919061190c565b6004600087815260200190815260200160002060000160006101000a81548173ffffffffffffffffffffffffffffffffffffffff021916908373ffffffffffffffffffffffffffffffffffffffff16021790555082600460008781526020019081526020016000206001018190555060016004600087815260200190815260200160002060020160006101000a81548160ff02191690831515021790555060006004600087815260200190815260200160002060020160016101000a81548160ff0219169083151502179055506001600081905550505050505050565b600260005414156105b6576040517f08c379a00000000000000000000000000000000000000000000000000000000081526004016105ad90611765565b60405180910390fd5b60026000819055506004600082815260200190815260200160002060000160009054906101000a900473ffffffffffffffffffffffffffffffffffffffff1673ffffffffffffffffffffffffffffffffffffffff163373ffffffffffffffffffffffffffffffffffffffff161461062c57600080fd5b60006004600083815260200190815260200160002060030160000160006101000a81548160ff02191690831515021790555060016004600083815260200190815260200160002060030160000160016101000a81548160ff021916908315150217905550807f07232afd803c786d2eada771790c0ff2fc5e7221909ae5c06661697d8fd9f8cb60405160405180910390a2600160008190555050565b6002600054141561070e576040517f08c379a000000000000000000000000000000000000000000000000000000000815260040161070590611765565b60405180910390fd5b6002600081905550600015156004600084815260200190815260200160002060020160009054906101000a900460ff16151514610780576040517f08c379a000000000000000000000000000000000000000000000000000000000815260040161077790611985565b60405180910390fd5b3373ffffffffffffffffffffffffffffffffffffffff16600260009054906101000a900473ffffffffffffffffffffffffffffffffffffffff1673ffffffffffffffffffffffffffffffffffffffff16636352211e846040518263ffffffff1660e01b81526004016107f291906118dc565b602060405180830381865afa15801561080f573d6000803e3d6000fd5b505050506040513d601f19601f82011682018060405250810190610833919061190c565b73ffffffffffffffffffffffffffffffffffffffff1614610889576040517f08c379a0000000000000000000000000000000000000000000000000000000008152600401610880906119f1565b60405180910390fd5b600260009054906101000a900473ffffffffffffffffffffffffffffffffffffffff1673ffffffffffffffffffffffffffffffffffffffff16636352211e836040518263ffffffff1660e01b81526004016108e491906118dc565b602060405180830381865afa158015610901573d6000803e3d6000fd5b505050506040513d601f19601f82011682018060405250810190610925919061190c565b6004600084815260200190815260200160002060000160006101000a81548173ffffffffffffffffffffffffffffffffffffffff021916908373ffffffffffffffffffffffffffffffffffffffff16021790555080600460008481526020019081526020016000206001018190555060006004600084815260200190815260200160002060020160006101000a81548160ff02191690831515021790555060016004600084815260200190815260200160002060020160016101000a81548160ff02191690831515021790555080827f620e9df2dffe75165edab8da0880bce033fd2b04ce54012be0379a724abb007260405160405180910390a360016000819055505050565b60026000541415610a72576040517f08c379a0000000000000000000000000000000000000000000000000000000008152600401610a6990611765565b60405180910390fd5b6002600081905550600160009054906101000a900473ffffffffffffffffffffffffffffffffffffffff1673ffffffffffffffffffffffffffffffffffffffff16635138b08c600260009054906101000a900473ffffffffffffffffffffffffffffffffffffffff16836040518363ffffffff1660e01b8152600401610af9929190611a11565b600060405180830381600087803b158015610b1357600080fd5b505af1158015610b27573d6000803e3d6000fd5b50505050600160009054906101000a900473ffffffffffffffffffffffffffffffffffffffff1673ffffffffffffffffffffffffffffffffffffffff16638f288644826040518263ffffffff1660e01b8152600401610b8691906118dc565b602060405180830381865afa158015610ba3573d6000803e3d6000fd5b505050506040513d601f19601f82011682018060405250810190610bc79190611a4f565b600460008381526020019081526020016000206001018190555060006004600083815260200190815260200160002060020160006101000a81548160ff02191690831515021790555060006004600083815260200190815260200160002060020160016101000a81548160ff02191690831515021790555060016004600083815260200190815260200160002060030160000160006101000a81548160ff021916908315150217905550600160008190555050565b60026000541415610cc2576040517f08c379a0000000000000000000000000000000000000000000000000000000008152600401610cb990611765565b60405180910390fd5b6002600081905550600360009054906101000a900473ffffffffffffffffffffffffffffffffffffffff1673ffffffffffffffffffffffffffffffffffffffff163373ffffffffffffffffffffffffffffffffffffffff1614610d2457600080fd5b60006004600083815260200190815260200160002060030160000160006101000a81548160ff02191690831515021790555060006004600083815260200190815260200160002060030160000160016101000a81548160ff02191690831515021790555060016004600083815260200190815260200160002060030160000160026101000a81548160ff021916908315150217905550600160009054906101000a900473ffffffffffffffffffffffffffffffffffffffff1673ffffffffffffffffffffffffffffffffffffffff16634d68282f826040518263ffffffff1660e01b8152600401610e1591906118dc565b600060405180830381600087803b158015610e2f57600080fd5b505af1158015610e43573d6000803e3d6000fd5b50505050807f02a7d4d9472af7118644884b9a0ee443540c0027e938dd0aa35be8ecbe946c0a60405160405180910390a2600160008190555050565b60026000541415610ec5576040517f08c379a0000000000000000000000000000000000000000000000000000000008152600401610ebc90611765565b60405180910390fd5b600260008190555060006004600083815260200190815260200160002060020160006101000a81548160ff02191690831515021790555060006004600083815260200190815260200160002060020160016101000a81548160ff02191690831515021790555060016004600083815260200190815260200160002060030160000160006101000a81548160ff02191690831515021790555060006004600083815260200190815260200160002060000160009054906101000a900473ffffffffffffffffffffffffffffffffffffffff1690508073ffffffffffffffffffffffffffffffffffffffff166108fc349081150290604051600060405180830381858888f19350505050158015610fde573d6000803e3d6000fd5b50600260009054906101000a900473ffffffffffffffffffffffffffffffffffffffff1673ffffffffffffffffffffffffffffffffffffffff166323b872dd8233856040518463ffffffff1660e01b815260040161103e93929190611a7c565b600060405180830381600087803b15801561105857600080fd5b505af115801561106c573d6000803e3d6000fd5b5050505034827ff07f7b091257009fe8d145d95c8cb6acf6f80ba31703c72937c0ac36e8382fd560405160405180910390a350600160008190555050565b600260005414156110f0576040517f08c379a00000000000000000000000000000000000000000000000000000000081526004016110e790611765565b60405180910390fd5b6002600081905550600160009054906101000a900473ffffffffffffffffffffffffffffffffffffffff1673ffffffffffffffffffffffffffffffffffffffff1663859b97fe600260009054906101000a900473ffffffffffffffffffffffffffffffffffffffff16836040518363ffffffff1660e01b8152600401611177929190611a11565b600060405180830381600087803b15801561119157600080fd5b505af11580156111a5573d6000803e3d6000fd5b5050505060006004600083815260200190815260200160002060020160006101000a81548160ff02191690831515021790555060006004600083815260200190815260200160002060010181905550600160008190555050565b60026000541415611245576040517f08c379a000000000000000000000000000000000000000000000000000000000815260040161123c90611765565b60405180910390fd5b6002600081905550600160009054906101000a900473ffffffffffffffffffffffffffffffffffffffff1673ffffffffffffffffffffffffffffffffffffffff1663b8bd1b1d3483336040518463ffffffff1660e01b81526004016112ab929190611ab3565b6000604051808303818588803b1580156112c457600080fd5b505af11580156112d8573d6000803e3d6000fd5b5050505050600160008190555050565b80600260006101000a81548173ffffffffffffffffffffffffffffffffffffffff021916908373ffffffffffffffffffffffffffffffffffffffff16021790555050565b60026000541415611372576040517f08c379a000000000000000000000000000000000000000000000000000000000815260040161136990611765565b60405180910390fd5b6002600081905550600160009054906101000a900473ffffffffffffffffffffffffffffffffffffffff1673ffffffffffffffffffffffffffffffffffffffff1663cbe98dba600260009054906101000a900473ffffffffffffffffffffffffffffffffffffffff1684846040518463ffffffff1660e01b81526004016113fb93929190611adc565b600060405180830381600087803b15801561141557600080fd5b505af1158015611429573d6000803e3d6000fd5b5050505080600460008481526020019081526020016000206001018190555060016000819055505050565b6002600054141561149a576040517f08c379a000000000000000000000000000000000000000000000000000000000815260040161149190611765565b60405180910390fd5b6002600081905550600360009054906101000a900473ffffffffffffffffffffffffffffffffffffffff1673ffffffffffffffffffffffffffffffffffffffff163373ffffffffffffffffffffffffffffffffffffffff16146114fc57600080fd5b80600360006101000a81548173ffffffffffffffffffffffffffffffffffffffff021916908373ffffffffffffffffffffffffffffffffffffffff160217905550600160008190555050565b600080fd5b600073ffffffffffffffffffffffffffffffffffffffff82169050919050565b60006115788261154d565b9050919050565b6115888161156d565b811461159357600080fd5b50565b6000813590506115a58161157f565b92915050565b6000819050919050565b6115be816115ab565b81146115c957600080fd5b50565b6000813590506115db816115b5565b92915050565b60008060008060008060c087890312156115fe576115fd611548565b5b600061160c89828a01611596565b965050602061161d89828a016115cc565b955050604061162e89828a016115cc565b945050606061163f89828a016115cc565b935050608061165089828a01611596565b92505060a061166189828a016115cc565b9150509295509295509295565b60006020828403121561168457611683611548565b5b6000611692848285016115cc565b91505092915050565b600080604083850312156116b2576116b1611548565b5b60006116c0858286016115cc565b92505060206116d1858286016115cc565b9150509250929050565b6000602082840312156116f1576116f0611548565b5b60006116ff84828501611596565b91505092915050565b600082825260208201905092915050565b7f5265656e7472616e637947756172643a207265656e7472616e742063616c6c00600082015250565b600061174f601f83611708565b915061175a82611719565b602082019050919050565b6000602082019050818103600083015261177e81611742565b9050919050565b7f4954454d5f414c52454144595f4f4e5f4449524543545f53414c450000000000600082015250565b60006117bb601b83611708565b91506117c682611785565b602082019050919050565b600060208201905081810360008301526117ea816117ae565b9050919050565b7f41554354494f4e5f414c52454144595f45584953545300000000000000000000600082015250565b6000611827601683611708565b9150611832826117f1565b602082019050919050565b600060208201905081810360008301526118568161181a565b9050919050565b6118668161156d565b82525050565b611875816115ab565b82525050565b600060c082019050611890600083018961185d565b61189d602083018861186c565b6118aa604083018761186c565b6118b7606083018661186c565b6118c4608083018561185d565b6118d160a083018461186c565b979650505050505050565b60006020820190506118f1600083018461186c565b92915050565b6000815190506119068161157f565b92915050565b60006020828403121561192257611921611548565b5b6000611930848285016118f7565b91505092915050565b7f4954454d5f414c52454144595f4f4e5f41554354494f4e000000000000000000600082015250565b600061196f601783611708565b915061197a82611939565b602082019050919050565b6000602082019050818103600083015261199e81611962565b9050919050565b7f4f4e4c595f4f574e45525f43414e5f5055545f4954454d535f4f4e5f53414c45600082015250565b60006119db602083611708565b91506119e6826119a5565b602082019050919050565b60006020820190508181036000830152611a0a816119ce565b9050919050565b6000604082019050611a26600083018561185d565b611a33602083018461186c565b9392505050565b600081519050611a49816115b5565b92915050565b600060208284031215611a6557611a64611548565b5b6000611a7384828501611a3a565b91505092915050565b6000606082019050611a91600083018661185d565b611a9e602083018561185d565b611aab604083018461186c565b949350505050565b6000604082019050611ac8600083018561186c565b611ad5602083018461185d565b9392505050565b6000606082019050611af1600083018661185d565b611afe602083018561186c565b611b0b604083018461186c565b94935050505056fea26469706673582212203d57a7a56638aeb03be7703f6f268ce97905f75d2b534238dcb5a4658d454c6d64736f6c634300080a0033",
  "linkReferences": {},
  "deployedLinkReferences": {}
}