{
  "_format": "hh-sol-artifact-1",
  "contractName": "MarketPlace",
  "sourceName": "contracts/marketplace.sol",
  "abi": [
    {
      "inputs": [
        {
          "internalType": "address",
          "name": "_auctionContract",
          "type": "address"
        }
      ],
      "stateMutability": "nonpayable",
      "type": "constructor"
    },
    {
      "anonymous": false,
      "inputs": [
        {
          "indexed": true,
          "internalType": "uint256",
          "name": "tokenId",
          "type": "uint256"
        },
        {
          "indexed": true,
          "internalType": "uint256",
          "name": "price",
          "type": "uint256"
        }
      ],
      "name": "DirectSaleCreated",
      "type": "event"
    },
    {
      "anonymous": false,
      "inputs": [
        {
          "indexed": true,
          "internalType": "uint256",
          "name": "tokenId",
          "type": "uint256"
        },
        {
          "indexed": true,
          "internalType": "uint256",
          "name": "price",
          "type": "uint256"
        }
      ],
      "name": "DirectSaleDone",
      "type": "event"
    },
    {
      "anonymous": false,
      "inputs": [
        {
          "indexed": true,
          "internalType": "uint256",
          "name": "tokenId",
          "type": "uint256"
        }
      ],
      "name": "OrderCompleted",
      "type": "event"
    },
    {
      "anonymous": false,
      "inputs": [
        {
          "indexed": true,
          "internalType": "uint256",
          "name": "tokenId",
          "type": "uint256"
        }
      ],
      "name": "OrderInTransit",
      "type": "event"
    },
    {
      "inputs": [
        {
          "internalType": "uint256",
          "name": "_tokenId",
          "type": "uint256"
        }
      ],
      "name": "cancelAuction",
      "outputs": [],
      "stateMutability": "nonpayable",
      "type": "function"
    },
    {
      "inputs": [
        {
          "internalType": "uint256",
          "name": "_tokenId",
          "type": "uint256"
        },
        {
          "internalType": "uint256",
          "name": "_reservePrice",
          "type": "uint256"
        }
      ],
      "name": "changeReservePrice",
      "outputs": [],
      "stateMutability": "nonpayable",
      "type": "function"
    },
    {
      "inputs": [
        {
          "internalType": "address",
          "name": "_tokenContract",
          "type": "address"
        },
        {
          "internalType": "uint256",
          "name": "_tokenId",
          "type": "uint256"
        },
        {
          "internalType": "uint256",
          "name": "_duration",
          "type": "uint256"
        },
        {
          "internalType": "uint256",
          "name": "_reservePrice",
          "type": "uint256"
        },
        {
          "internalType": "address",
          "name": "_sellerFundsRecipient",
          "type": "address"
        },
        {
          "internalType": "uint256",
          "name": "_startTime",
          "type": "uint256"
        }
      ],
      "name": "createAuction",
      "outputs": [],
      "stateMutability": "payable",
      "type": "function"
    },
    {
      "inputs": [
        {
          "internalType": "uint256",
          "name": "_tokenId",
          "type": "uint256"
        },
        {
          "internalType": "uint256",
          "name": "_reservePrice",
          "type": "uint256"
        }
      ],
      "name": "createDirectSaleItem",
      "outputs": [],
      "stateMutability": "payable",
      "type": "function"
    },
    {
      "inputs": [],
      "name": "getListingFee",
      "outputs": [
        {
          "internalType": "uint256",
          "name": "",
          "type": "uint256"
        }
      ],
      "stateMutability": "view",
      "type": "function"
    },
    {
      "inputs": [
        {
          "internalType": "uint256",
          "name": "_tokenId",
          "type": "uint256"
        }
      ],
      "name": "orderCompleted",
      "outputs": [],
      "stateMutability": "nonpayable",
      "type": "function"
    },
    {
      "inputs": [
        {
          "internalType": "uint256",
          "name": "_tokenId",
          "type": "uint256"
        }
      ],
      "name": "placeBid",
      "outputs": [],
      "stateMutability": "payable",
      "type": "function"
    },
    {
      "inputs": [
        {
          "internalType": "uint256",
          "name": "_tokenId",
          "type": "uint256"
        }
      ],
      "name": "setOrderInTransit",
      "outputs": [],
      "stateMutability": "nonpayable",
      "type": "function"
    },
    {
      "inputs": [
        {
          "internalType": "address",
          "name": "_tokenContract",
          "type": "address"
        }
      ],
      "name": "setTokenContract",
      "outputs": [],
      "stateMutability": "nonpayable",
      "type": "function"
    },
    {
      "inputs": [
        {
          "internalType": "uint256",
          "name": "_tokenId",
          "type": "uint256"
        }
      ],
      "name": "settleAuction",
      "outputs": [],
      "stateMutability": "payable",
      "type": "function"
    },
    {
      "inputs": [
        {
          "internalType": "uint256",
          "name": "_tokenId",
          "type": "uint256"
        }
      ],
      "name": "settleDirectSale",
      "outputs": [],
      "stateMutability": "payable",
      "type": "function"
    },
    {
      "inputs": [
        {
          "internalType": "address",
          "name": "_admin",
          "type": "address"
        }
      ],
      "name": "updateAdmin",
      "outputs": [],
      "stateMutability": "nonpayable",
      "type": "function"
    },
    {
      "inputs": [
        {
          "internalType": "uint256",
          "name": "_listingFee",
          "type": "uint256"
        }
      ],
      "name": "updateListingFee",
      "outputs": [],
      "stateMutability": "nonpayable",
      "type": "function"
    }
  ],
  "bytecode": "0x6080604052670de0b6b3a76400006004553480156200001d57600080fd5b50604051620023253803806200232583398181016040528101906200004391906200013e565b600160008190555080600160006101000a81548173ffffffffffffffffffffffffffffffffffffffff021916908373ffffffffffffffffffffffffffffffffffffffff16021790555033600360006101000a81548173ffffffffffffffffffffffffffffffffffffffff021916908373ffffffffffffffffffffffffffffffffffffffff1602179055505062000170565b600080fd5b600073ffffffffffffffffffffffffffffffffffffffff82169050919050565b60006200010682620000d9565b9050919050565b6200011881620000f9565b81146200012457600080fd5b50565b60008151905062000138816200010d565b92915050565b600060208284031215620001575762000156620000d4565b5b6000620001678482850162000127565b91505092915050565b6121a580620001806000396000f3fe6080604052600436106100c25760003560e01c806396b5a7551161007f578063bbcd5bbe11610059578063bbcd5bbe146101f9578063d9ec787d14610222578063e2f273bd1461024b578063f79d91ae14610274576100c2565b806396b5a755146101895780639979ef45146101b2578063b8fe6abe146101ce576100c2565b806306fdd531146100c75780630acf1ad9146100e357806317a273a21461010c5780632e9936111461012857806364f1df33146101445780636ceae2711461016d575b600080fd5b6100e160048036038101906100dc9190611943565b61029d565b005b3480156100ef57600080fd5b5061010a600480360381019061010591906119d0565b61067d565b005b610126600480360381019061012191906119fd565b61080b565b005b610142600480360381019061013d91906119d0565b610be6565b005b34801561015057600080fd5b5061016b600480360381019061016691906119d0565b610e36565b005b610187600480360381019061018291906119d0565b61106f565b005b34801561019557600080fd5b506101b060048036038101906101ab91906119d0565b611368565b005b6101cc60048036038101906101c791906119d0565b6114bd565b005b3480156101da57600080fd5b506101e36115a6565b6040516101f09190611a4c565b60405180910390f35b34801561020557600080fd5b50610220600480360381019061021b9190611a67565b6115b0565b005b34801561022e57600080fd5b50610249600480360381019061024491906119fd565b6115f4565b005b34801561025757600080fd5b50610272600480360381019061026d9190611a67565b61171c565b005b34801561028057600080fd5b5061029b600480360381019061029691906119d0565b611810565b005b600260005414156102e3576040517f08c379a00000000000000000000000000000000000000000000000000000000081526004016102da90611af1565b60405180910390fd5b6002600081905550600015156005600087815260200190815260200160002060020160019054906101000a900460ff16151514610355576040517f08c379a000000000000000000000000000000000000000000000000000000000815260040161034c90611b5d565b60405180910390fd5b600115156005600087815260200190815260200160002060020160009054906101000a900460ff16151514156103c0576040517f08c379a00000000000000000000000000000000000000000000000000000000081526004016103b790611bc9565b60405180910390fd5b6004543414610404576040517f08c379a00000000000000000000000000000000000000000000000000000000081526004016103fb90611c35565b60405180910390fd5b600360009054906101000a900473ffffffffffffffffffffffffffffffffffffffff1673ffffffffffffffffffffffffffffffffffffffff166108fc349081150290604051600060405180830381858888f1935050505015801561046c573d6000803e3d6000fd5b50600160009054906101000a900473ffffffffffffffffffffffffffffffffffffffff1673ffffffffffffffffffffffffffffffffffffffff166306fdd5318787878787876040518763ffffffff1660e01b81526004016104d296959493929190611c64565b600060405180830381600087803b1580156104ec57600080fd5b505af1158015610500573d6000803e3d6000fd5b50505050600260009054906101000a900473ffffffffffffffffffffffffffffffffffffffff1673ffffffffffffffffffffffffffffffffffffffff16636352211e866040518263ffffffff1660e01b815260040161055f9190611a4c565b602060405180830381865afa15801561057c573d6000803e3d6000fd5b505050506040513d601f19601f820116820180604052508101906105a09190611cda565b6005600087815260200190815260200160002060000160006101000a81548173ffffffffffffffffffffffffffffffffffffffff021916908373ffffffffffffffffffffffffffffffffffffffff16021790555082600560008781526020019081526020016000206001018190555060016005600087815260200190815260200160002060020160006101000a81548160ff02191690831515021790555060006005600087815260200190815260200160002060020160016101000a81548160ff0219169083151502179055506001600081905550505050505050565b600260005414156106c3576040517f08c379a00000000000000000000000000000000000000000000000000000000081526004016106ba90611af1565b60405180910390fd5b60026000819055506005600082815260200190815260200160002060000160009054906101000a900473ffffffffffffffffffffffffffffffffffffffff1673ffffffffffffffffffffffffffffffffffffffff163373ffffffffffffffffffffffffffffffffffffffff161461076f576040517f08c379a000000000000000000000000000000000000000000000000000000000815260040161076690611d79565b60405180910390fd5b60006005600083815260200190815260200160002060030160000160006101000a81548160ff02191690831515021790555060016005600083815260200190815260200160002060030160000160016101000a81548160ff021916908315150217905550807f07232afd803c786d2eada771790c0ff2fc5e7221909ae5c06661697d8fd9f8cb60405160405180910390a2600160008190555050565b60026000541415610851576040517f08c379a000000000000000000000000000000000000000000000000000000000815260040161084890611af1565b60405180910390fd5b6002600081905550600015156005600084815260200190815260200160002060020160009054906101000a900460ff161515146108c3576040517f08c379a00000000000000000000000000000000000000000000000000000000081526004016108ba90611de5565b60405180910390fd5b3373ffffffffffffffffffffffffffffffffffffffff16600260009054906101000a900473ffffffffffffffffffffffffffffffffffffffff1673ffffffffffffffffffffffffffffffffffffffff16636352211e846040518263ffffffff1660e01b81526004016109359190611a4c565b602060405180830381865afa158015610952573d6000803e3d6000fd5b505050506040513d601f19601f820116820180604052508101906109769190611cda565b73ffffffffffffffffffffffffffffffffffffffff16146109cc576040517f08c379a00000000000000000000000000000000000000000000000000000000081526004016109c390611e51565b60405180910390fd5b60045434146109da57600080fd5b600360009054906101000a900473ffffffffffffffffffffffffffffffffffffffff1673ffffffffffffffffffffffffffffffffffffffff166108fc349081150290604051600060405180830381858888f19350505050158015610a42573d6000803e3d6000fd5b50600260009054906101000a900473ffffffffffffffffffffffffffffffffffffffff1673ffffffffffffffffffffffffffffffffffffffff16636352211e836040518263ffffffff1660e01b8152600401610a9e9190611a4c565b602060405180830381865afa158015610abb573d6000803e3d6000fd5b505050506040513d601f19601f82011682018060405250810190610adf9190611cda565b6005600084815260200190815260200160002060000160006101000a81548173ffffffffffffffffffffffffffffffffffffffff021916908373ffffffffffffffffffffffffffffffffffffffff16021790555080600560008481526020019081526020016000206001018190555060006005600084815260200190815260200160002060020160006101000a81548160ff02191690831515021790555060016005600084815260200190815260200160002060020160016101000a81548160ff02191690831515021790555080827f620e9df2dffe75165edab8da0880bce033fd2b04ce54012be0379a724abb007260405160405180910390a360016000819055505050565b60026000541415610c2c576040517f08c379a0000000000000000000000000000000000000000000000000000000008152600401610c2390611af1565b60405180910390fd5b6002600081905550600160009054906101000a900473ffffffffffffffffffffffffffffffffffffffff1673ffffffffffffffffffffffffffffffffffffffff16635138b08c600260009054906101000a900473ffffffffffffffffffffffffffffffffffffffff16836040518363ffffffff1660e01b8152600401610cb3929190611e71565b600060405180830381600087803b158015610ccd57600080fd5b505af1158015610ce1573d6000803e3d6000fd5b50505050600160009054906101000a900473ffffffffffffffffffffffffffffffffffffffff1673ffffffffffffffffffffffffffffffffffffffff16638f288644826040518263ffffffff1660e01b8152600401610d409190611a4c565b602060405180830381865afa158015610d5d573d6000803e3d6000fd5b505050506040513d601f19601f82011682018060405250810190610d819190611eaf565b600560008381526020019081526020016000206001018190555060006005600083815260200190815260200160002060020160006101000a81548160ff02191690831515021790555060006005600083815260200190815260200160002060020160016101000a81548160ff02191690831515021790555060016005600083815260200190815260200160002060030160000160006101000a81548160ff021916908315150217905550600160008190555050565b60026000541415610e7c576040517f08c379a0000000000000000000000000000000000000000000000000000000008152600401610e7390611af1565b60405180910390fd5b6002600081905550600360009054906101000a900473ffffffffffffffffffffffffffffffffffffffff1673ffffffffffffffffffffffffffffffffffffffff163373ffffffffffffffffffffffffffffffffffffffff1614610f14576040517f08c379a0000000000000000000000000000000000000000000000000000000008152600401610f0b90611f4e565b60405180910390fd5b60006005600083815260200190815260200160002060030160000160006101000a81548160ff02191690831515021790555060006005600083815260200190815260200160002060030160000160016101000a81548160ff02191690831515021790555060016005600083815260200190815260200160002060030160000160026101000a81548160ff021916908315150217905550600160009054906101000a900473ffffffffffffffffffffffffffffffffffffffff1673ffffffffffffffffffffffffffffffffffffffff16634d68282f826040518263ffffffff1660e01b81526004016110059190611a4c565b600060405180830381600087803b15801561101f57600080fd5b505af1158015611033573d6000803e3d6000fd5b50505050807f02a7d4d9472af7118644884b9a0ee443540c0027e938dd0aa35be8ecbe946c0a60405160405180910390a2600160008190555050565b600260005414156110b5576040517f08c379a00000000000000000000000000000000000000000000000000000000081526004016110ac90611af1565b60405180910390fd5b600260008190555060006005600083815260200190815260200160002060010154905060006005600084815260200190815260200160002060000160009054906101000a900473ffffffffffffffffffffffffffffffffffffffff1690508073ffffffffffffffffffffffffffffffffffffffff163373ffffffffffffffffffffffffffffffffffffffff161415611182576040517f08c379a000000000000000000000000000000000000000000000000000000000815260040161117990611fba565b60405180910390fd5b813410156111c5576040517f08c379a00000000000000000000000000000000000000000000000000000000081526004016111bc90612026565b60405180910390fd5b60006005600085815260200190815260200160002060020160006101000a81548160ff02191690831515021790555060006005600085815260200190815260200160002060020160016101000a81548160ff02191690831515021790555060016005600085815260200190815260200160002060030160000160006101000a81548160ff0219169083151502179055508073ffffffffffffffffffffffffffffffffffffffff166108fc349081150290604051600060405180830381858888f1935050505015801561129b573d6000803e3d6000fd5b50600260009054906101000a900473ffffffffffffffffffffffffffffffffffffffff1673ffffffffffffffffffffffffffffffffffffffff166342842e0e8233866040518463ffffffff1660e01b81526004016112fb93929190612046565b600060405180830381600087803b15801561131557600080fd5b505af1158015611329573d6000803e3d6000fd5b5050505034837ff07f7b091257009fe8d145d95c8cb6acf6f80ba31703c72937c0ac36e8382fd560405160405180910390a35050600160008190555050565b600260005414156113ae576040517f08c379a00000000000000000000000000000000000000000000000000000000081526004016113a590611af1565b60405180910390fd5b6002600081905550600160009054906101000a900473ffffffffffffffffffffffffffffffffffffffff1673ffffffffffffffffffffffffffffffffffffffff1663859b97fe600260009054906101000a900473ffffffffffffffffffffffffffffffffffffffff16836040518363ffffffff1660e01b8152600401611435929190611e71565b600060405180830381600087803b15801561144f57600080fd5b505af1158015611463573d6000803e3d6000fd5b5050505060006005600083815260200190815260200160002060020160006101000a81548160ff02191690831515021790555060006005600083815260200190815260200160002060010181905550600160008190555050565b60026000541415611503576040517f08c379a00000000000000000000000000000000000000000000000000000000081526004016114fa90611af1565b60405180910390fd5b6002600081905550600160009054906101000a900473ffffffffffffffffffffffffffffffffffffffff1673ffffffffffffffffffffffffffffffffffffffff1663b8bd1b1d3483336040518463ffffffff1660e01b815260040161156992919061207d565b6000604051808303818588803b15801561158257600080fd5b505af1158015611596573d6000803e3d6000fd5b5050505050600160008190555050565b6000600454905090565b80600260006101000a81548173ffffffffffffffffffffffffffffffffffffffff021916908373ffffffffffffffffffffffffffffffffffffffff16021790555050565b6002600054141561163a576040517f08c379a000000000000000000000000000000000000000000000000000000000815260040161163190611af1565b60405180910390fd5b6002600081905550600160009054906101000a900473ffffffffffffffffffffffffffffffffffffffff1673ffffffffffffffffffffffffffffffffffffffff1663cbe98dba600260009054906101000a900473ffffffffffffffffffffffffffffffffffffffff1684846040518463ffffffff1660e01b81526004016116c3939291906120a6565b600060405180830381600087803b1580156116dd57600080fd5b505af11580156116f1573d6000803e3d6000fd5b5050505080600560008481526020019081526020016000206001018190555060016000819055505050565b60026000541415611762576040517f08c379a000000000000000000000000000000000000000000000000000000000815260040161175990611af1565b60405180910390fd5b6002600081905550600360009054906101000a900473ffffffffffffffffffffffffffffffffffffffff1673ffffffffffffffffffffffffffffffffffffffff163373ffffffffffffffffffffffffffffffffffffffff16146117c457600080fd5b80600360006101000a81548173ffffffffffffffffffffffffffffffffffffffff021916908373ffffffffffffffffffffffffffffffffffffffff160217905550600160008190555050565b600360009054906101000a900473ffffffffffffffffffffffffffffffffffffffff1673ffffffffffffffffffffffffffffffffffffffff163373ffffffffffffffffffffffffffffffffffffffff16146118a0576040517f08c379a00000000000000000000000000000000000000000000000000000000081526004016118979061214f565b60405180910390fd5b8060048190555050565b600080fd5b600073ffffffffffffffffffffffffffffffffffffffff82169050919050565b60006118da826118af565b9050919050565b6118ea816118cf565b81146118f557600080fd5b50565b600081359050611907816118e1565b92915050565b6000819050919050565b6119208161190d565b811461192b57600080fd5b50565b60008135905061193d81611917565b92915050565b60008060008060008060c087890312156119605761195f6118aa565b5b600061196e89828a016118f8565b965050602061197f89828a0161192e565b955050604061199089828a0161192e565b94505060606119a189828a0161192e565b93505060806119b289828a016118f8565b92505060a06119c389828a0161192e565b9150509295509295509295565b6000602082840312156119e6576119e56118aa565b5b60006119f48482850161192e565b91505092915050565b60008060408385031215611a1457611a136118aa565b5b6000611a228582860161192e565b9250506020611a338582860161192e565b9150509250929050565b611a468161190d565b82525050565b6000602082019050611a616000830184611a3d565b92915050565b600060208284031215611a7d57611a7c6118aa565b5b6000611a8b848285016118f8565b91505092915050565b600082825260208201905092915050565b7f5265656e7472616e637947756172643a207265656e7472616e742063616c6c00600082015250565b6000611adb601f83611a94565b9150611ae682611aa5565b602082019050919050565b60006020820190508181036000830152611b0a81611ace565b9050919050565b7f4954454d5f414c52454144595f4f4e5f4449524543545f53414c450000000000600082015250565b6000611b47601b83611a94565b9150611b5282611b11565b602082019050919050565b60006020820190508181036000830152611b7681611b3a565b9050919050565b7f41554354494f4e5f414c52454144595f45584953545300000000000000000000600082015250565b6000611bb3601683611a94565b9150611bbe82611b7d565b602082019050919050565b60006020820190508181036000830152611be281611ba6565b9050919050565b7f50524f564944455f4c495354494e475f46454500000000000000000000000000600082015250565b6000611c1f601383611a94565b9150611c2a82611be9565b602082019050919050565b60006020820190508181036000830152611c4e81611c12565b9050919050565b611c5e816118cf565b82525050565b600060c082019050611c796000830189611c55565b611c866020830188611a3d565b611c936040830187611a3d565b611ca06060830186611a3d565b611cad6080830185611c55565b611cba60a0830184611a3d565b979650505050505050565b600081519050611cd4816118e1565b92915050565b600060208284031215611cf057611cef6118aa565b5b6000611cfe84828501611cc5565b91505092915050565b7f6f6e6c792073656c6c657220696e697469617465206f7264657220696e20747260008201527f616e736974000000000000000000000000000000000000000000000000000000602082015250565b6000611d63602583611a94565b9150611d6e82611d07565b604082019050919050565b60006020820190508181036000830152611d9281611d56565b9050919050565b7f4954454d5f414c52454144595f4f4e5f41554354494f4e000000000000000000600082015250565b6000611dcf601783611a94565b9150611dda82611d99565b602082019050919050565b60006020820190508181036000830152611dfe81611dc2565b9050919050565b7f4f4e4c595f4f574e45525f43414e5f5055545f4954454d535f4f4e5f53414c45600082015250565b6000611e3b602083611a94565b9150611e4682611e05565b602082019050919050565b60006020820190508181036000830152611e6a81611e2e565b9050919050565b6000604082019050611e866000830185611c55565b611e936020830184611a3d565b9392505050565b600081519050611ea981611917565b92915050565b600060208284031215611ec557611ec46118aa565b5b6000611ed384828501611e9a565b91505092915050565b7f4f7264657220636f6d706c7465642072657175697265732061646d696e73206160008201527f7070726f76616c00000000000000000000000000000000000000000000000000602082015250565b6000611f38602783611a94565b9150611f4382611edc565b604082019050919050565b60006020820190508181036000830152611f6781611f2b565b9050919050565b7f53454c4c45525f43414e4e4f545f425559000000000000000000000000000000600082015250565b6000611fa4601183611a94565b9150611faf82611f6e565b602082019050919050565b60006020820190508181036000830152611fd381611f97565b9050919050565b7f494e53554646494349454e545f45544845525f53454e54000000000000000000600082015250565b6000612010601783611a94565b915061201b82611fda565b602082019050919050565b6000602082019050818103600083015261203f81612003565b9050919050565b600060608201905061205b6000830186611c55565b6120686020830185611c55565b6120756040830184611a3d565b949350505050565b60006040820190506120926000830185611a3d565b61209f6020830184611c55565b9392505050565b60006060820190506120bb6000830186611c55565b6120c86020830185611a3d565b6120d56040830184611a3d565b949350505050565b7f4f4e4c595f4f574e45525f43414e5f4348414e47455f4c495354494e475f464560008201527f4500000000000000000000000000000000000000000000000000000000000000602082015250565b6000612139602183611a94565b9150612144826120dd565b604082019050919050565b600060208201905081810360008301526121688161212c565b905091905056fea2646970667358221220dbfe33b9013026042412528848177e0741cac0b8ba836b6de3f5dd9ec8d8464064736f6c634300080a0033",
  "linkReferences": {},
  "deployedLinkReferences": {}
}