{
  "_format": "hh-sol-artifact-1",
  "contractName": "NFTMarket",
  "sourceName": "contracts/NFTMarket.sol",
  "abi": [
    {
      "inputs": [],
      "stateMutability": "nonpayable",
      "type": "constructor"
    },
    {
      "anonymous": false,
      "inputs": [
        {
          "indexed": true,
          "internalType": "address",
          "name": "owner",
          "type": "address"
        },
        {
          "indexed": true,
          "internalType": "address",
          "name": "approved",
          "type": "address"
        },
        {
          "indexed": true,
          "internalType": "uint256",
          "name": "tokenId",
          "type": "uint256"
        }
      ],
      "name": "Approval",
      "type": "event"
    },
    {
      "anonymous": false,
      "inputs": [
        {
          "indexed": true,
          "internalType": "address",
          "name": "owner",
          "type": "address"
        },
        {
          "indexed": true,
          "internalType": "address",
          "name": "operator",
          "type": "address"
        },
        {
          "indexed": false,
          "internalType": "bool",
          "name": "approved",
          "type": "bool"
        }
      ],
      "name": "ApprovalForAll",
      "type": "event"
    },
    {
      "anonymous": false,
      "inputs": [
        {
          "indexed": true,
          "internalType": "uint256",
          "name": "tokenId",
          "type": "uint256"
        },
        {
          "components": [
            {
              "internalType": "address payable",
              "name": "seller",
              "type": "address"
            },
            {
              "internalType": "address payable",
              "name": "sellerAddress",
              "type": "address"
            },
            {
              "internalType": "uint96",
              "name": "price",
              "type": "uint96"
            },
            {
              "internalType": "uint96",
              "name": "highestBid",
              "type": "uint96"
            },
            {
              "internalType": "address payable",
              "name": "highestBidder",
              "type": "address"
            },
            {
              "internalType": "uint48",
              "name": "duration",
              "type": "uint48"
            },
            {
              "internalType": "uint256",
              "name": "startTime",
              "type": "uint256"
            },
            {
              "internalType": "uint256",
              "name": "firstBidTime",
              "type": "uint256"
            }
          ],
          "indexed": false,
          "internalType": "struct NFTMarket.Auction",
          "name": "auction",
          "type": "tuple"
        },
        {
          "components": [
            {
              "internalType": "uint256",
              "name": "price",
              "type": "uint256"
            },
            {
              "internalType": "bool",
              "name": "sold",
              "type": "bool"
            },
            {
              "internalType": "bool",
              "name": "onLiveAuction",
              "type": "bool"
            },
            {
              "internalType": "bool",
              "name": "onDirectSale",
              "type": "bool"
            }
          ],
          "indexed": false,
          "internalType": "struct NFTMarket.MarketItem",
          "name": "",
          "type": "tuple"
        }
      ],
      "name": "AuctionBid",
      "type": "event"
    },
    {
      "anonymous": false,
      "inputs": [
        {
          "indexed": true,
          "internalType": "uint256",
          "name": "tokenId",
          "type": "uint256"
        },
        {
          "components": [
            {
              "internalType": "address payable",
              "name": "seller",
              "type": "address"
            },
            {
              "internalType": "address payable",
              "name": "sellerAddress",
              "type": "address"
            },
            {
              "internalType": "uint96",
              "name": "price",
              "type": "uint96"
            },
            {
              "internalType": "uint96",
              "name": "highestBid",
              "type": "uint96"
            },
            {
              "internalType": "address payable",
              "name": "highestBidder",
              "type": "address"
            },
            {
              "internalType": "uint48",
              "name": "duration",
              "type": "uint48"
            },
            {
              "internalType": "uint256",
              "name": "startTime",
              "type": "uint256"
            },
            {
              "internalType": "uint256",
              "name": "firstBidTime",
              "type": "uint256"
            }
          ],
          "indexed": false,
          "internalType": "struct NFTMarket.Auction",
          "name": "auction",
          "type": "tuple"
        },
        {
          "components": [
            {
              "internalType": "uint256",
              "name": "price",
              "type": "uint256"
            },
            {
              "internalType": "bool",
              "name": "sold",
              "type": "bool"
            },
            {
              "internalType": "bool",
              "name": "onLiveAuction",
              "type": "bool"
            },
            {
              "internalType": "bool",
              "name": "onDirectSale",
              "type": "bool"
            }
          ],
          "indexed": false,
          "internalType": "struct NFTMarket.MarketItem",
          "name": "",
          "type": "tuple"
        }
      ],
      "name": "AuctionCancelled",
      "type": "event"
    },
    {
      "anonymous": false,
      "inputs": [
        {
          "indexed": true,
          "internalType": "uint256",
          "name": "tokenId",
          "type": "uint256"
        },
        {
          "components": [
            {
              "internalType": "address payable",
              "name": "seller",
              "type": "address"
            },
            {
              "internalType": "address payable",
              "name": "sellerAddress",
              "type": "address"
            },
            {
              "internalType": "uint96",
              "name": "price",
              "type": "uint96"
            },
            {
              "internalType": "uint96",
              "name": "highestBid",
              "type": "uint96"
            },
            {
              "internalType": "address payable",
              "name": "highestBidder",
              "type": "address"
            },
            {
              "internalType": "uint48",
              "name": "duration",
              "type": "uint48"
            },
            {
              "internalType": "uint256",
              "name": "startTime",
              "type": "uint256"
            },
            {
              "internalType": "uint256",
              "name": "firstBidTime",
              "type": "uint256"
            }
          ],
          "indexed": false,
          "internalType": "struct NFTMarket.Auction",
          "name": "auction",
          "type": "tuple"
        },
        {
          "components": [
            {
              "internalType": "uint256",
              "name": "price",
              "type": "uint256"
            },
            {
              "internalType": "bool",
              "name": "sold",
              "type": "bool"
            },
            {
              "internalType": "bool",
              "name": "onLiveAuction",
              "type": "bool"
            },
            {
              "internalType": "bool",
              "name": "onDirectSale",
              "type": "bool"
            }
          ],
          "indexed": false,
          "internalType": "struct NFTMarket.MarketItem",
          "name": "",
          "type": "tuple"
        }
      ],
      "name": "AuctionCreated",
      "type": "event"
    },
    {
      "anonymous": false,
      "inputs": [
        {
          "indexed": true,
          "internalType": "uint256",
          "name": "tokenId",
          "type": "uint256"
        },
        {
          "components": [
            {
              "internalType": "address payable",
              "name": "seller",
              "type": "address"
            },
            {
              "internalType": "address payable",
              "name": "sellerAddress",
              "type": "address"
            },
            {
              "internalType": "uint96",
              "name": "price",
              "type": "uint96"
            },
            {
              "internalType": "uint96",
              "name": "highestBid",
              "type": "uint96"
            },
            {
              "internalType": "address payable",
              "name": "highestBidder",
              "type": "address"
            },
            {
              "internalType": "uint48",
              "name": "duration",
              "type": "uint48"
            },
            {
              "internalType": "uint256",
              "name": "startTime",
              "type": "uint256"
            },
            {
              "internalType": "uint256",
              "name": "firstBidTime",
              "type": "uint256"
            }
          ],
          "indexed": false,
          "internalType": "struct NFTMarket.Auction",
          "name": "auction",
          "type": "tuple"
        },
        {
          "components": [
            {
              "internalType": "uint256",
              "name": "price",
              "type": "uint256"
            },
            {
              "internalType": "bool",
              "name": "sold",
              "type": "bool"
            },
            {
              "internalType": "bool",
              "name": "onLiveAuction",
              "type": "bool"
            },
            {
              "internalType": "bool",
              "name": "onDirectSale",
              "type": "bool"
            }
          ],
          "indexed": false,
          "internalType": "struct NFTMarket.MarketItem",
          "name": "",
          "type": "tuple"
        }
      ],
      "name": "AuctionEnded",
      "type": "event"
    },
    {
      "anonymous": false,
      "inputs": [
        {
          "indexed": true,
          "internalType": "uint256",
          "name": "tokenId",
          "type": "uint256"
        },
        {
          "indexed": false,
          "internalType": "uint256",
          "name": "price",
          "type": "uint256"
        },
        {
          "components": [
            {
              "internalType": "uint256",
              "name": "price",
              "type": "uint256"
            },
            {
              "internalType": "bool",
              "name": "sold",
              "type": "bool"
            },
            {
              "internalType": "bool",
              "name": "onLiveAuction",
              "type": "bool"
            },
            {
              "internalType": "bool",
              "name": "onDirectSale",
              "type": "bool"
            }
          ],
          "indexed": false,
          "internalType": "struct NFTMarket.MarketItem",
          "name": "",
          "type": "tuple"
        }
      ],
      "name": "DirectSaleCreated",
      "type": "event"
    },
    {
      "anonymous": false,
      "inputs": [
        {
          "indexed": true,
          "internalType": "uint256",
          "name": "tokenId",
          "type": "uint256"
        },
        {
          "indexed": false,
          "internalType": "uint256",
          "name": "price",
          "type": "uint256"
        },
        {
          "components": [
            {
              "internalType": "uint256",
              "name": "price",
              "type": "uint256"
            },
            {
              "internalType": "bool",
              "name": "sold",
              "type": "bool"
            },
            {
              "internalType": "bool",
              "name": "onLiveAuction",
              "type": "bool"
            },
            {
              "internalType": "bool",
              "name": "onDirectSale",
              "type": "bool"
            }
          ],
          "indexed": false,
          "internalType": "struct NFTMarket.MarketItem",
          "name": "",
          "type": "tuple"
        }
      ],
      "name": "DirectSaleDone",
      "type": "event"
    },
    {
      "anonymous": false,
      "inputs": [
        {
          "indexed": true,
          "internalType": "address",
          "name": "from",
          "type": "address"
        },
        {
          "indexed": true,
          "internalType": "address",
          "name": "to",
          "type": "address"
        },
        {
          "indexed": true,
          "internalType": "uint256",
          "name": "tokenId",
          "type": "uint256"
        }
      ],
      "name": "Transfer",
      "type": "event"
    },
    {
      "inputs": [
        {
          "internalType": "address",
          "name": "to",
          "type": "address"
        },
        {
          "internalType": "uint256",
          "name": "tokenId",
          "type": "uint256"
        }
      ],
      "name": "approve",
      "outputs": [],
      "stateMutability": "nonpayable",
      "type": "function"
    },
    {
      "inputs": [
        {
          "internalType": "uint256",
          "name": "",
          "type": "uint256"
        }
      ],
      "name": "auctionForNFT",
      "outputs": [
        {
          "internalType": "address payable",
          "name": "seller",
          "type": "address"
        },
        {
          "internalType": "address payable",
          "name": "sellerAddress",
          "type": "address"
        },
        {
          "internalType": "uint96",
          "name": "price",
          "type": "uint96"
        },
        {
          "internalType": "uint96",
          "name": "highestBid",
          "type": "uint96"
        },
        {
          "internalType": "address payable",
          "name": "highestBidder",
          "type": "address"
        },
        {
          "internalType": "uint48",
          "name": "duration",
          "type": "uint48"
        },
        {
          "internalType": "uint256",
          "name": "startTime",
          "type": "uint256"
        },
        {
          "internalType": "uint256",
          "name": "firstBidTime",
          "type": "uint256"
        }
      ],
      "stateMutability": "view",
      "type": "function"
    },
    {
      "inputs": [
        {
          "internalType": "address",
          "name": "owner",
          "type": "address"
        }
      ],
      "name": "balanceOf",
      "outputs": [
        {
          "internalType": "uint256",
          "name": "",
          "type": "uint256"
        }
      ],
      "stateMutability": "view",
      "type": "function"
    },
    {
      "inputs": [
        {
          "internalType": "uint256",
          "name": "_tokenId",
          "type": "uint256"
        }
      ],
      "name": "cancelAuction",
      "outputs": [],
      "stateMutability": "nonpayable",
      "type": "function"
    },
    {
      "inputs": [
        {
          "internalType": "uint256",
          "name": "_tokenId",
          "type": "uint256"
        },
        {
          "internalType": "uint96",
          "name": "_price",
          "type": "uint96"
        },
        {
          "internalType": "uint48",
          "name": "_duration",
          "type": "uint48"
        }
      ],
      "name": "createAuction",
      "outputs": [],
      "stateMutability": "nonpayable",
      "type": "function"
    },
    {
      "inputs": [
        {
          "internalType": "uint256",
          "name": "_tokenId",
          "type": "uint256"
        }
      ],
      "name": "createDirectSale",
      "outputs": [],
      "stateMutability": "payable",
      "type": "function"
    },
    {
      "inputs": [
        {
          "internalType": "uint256",
          "name": "_tokenId",
          "type": "uint256"
        },
        {
          "internalType": "uint256",
          "name": "_price",
          "type": "uint256"
        }
      ],
      "name": "createDirectSaleItem",
      "outputs": [],
      "stateMutability": "nonpayable",
      "type": "function"
    },
    {
      "inputs": [
        {
          "internalType": "uint256",
          "name": "tokenId",
          "type": "uint256"
        }
      ],
      "name": "getApproved",
      "outputs": [
        {
          "internalType": "address",
          "name": "",
          "type": "address"
        }
      ],
      "stateMutability": "view",
      "type": "function"
    },
    {
      "inputs": [],
      "name": "getLatestTokenId",
      "outputs": [
        {
          "internalType": "uint256",
          "name": "",
          "type": "uint256"
        }
      ],
      "stateMutability": "view",
      "type": "function"
    },
    {
      "inputs": [
        {
          "internalType": "address",
          "name": "owner",
          "type": "address"
        },
        {
          "internalType": "address",
          "name": "operator",
          "type": "address"
        }
      ],
      "name": "isApprovedForAll",
      "outputs": [
        {
          "internalType": "bool",
          "name": "",
          "type": "bool"
        }
      ],
      "stateMutability": "view",
      "type": "function"
    },
    {
      "inputs": [
        {
          "internalType": "string",
          "name": "_tokenURI",
          "type": "string"
        }
      ],
      "name": "mintToken",
      "outputs": [
        {
          "internalType": "uint256",
          "name": "",
          "type": "uint256"
        }
      ],
      "stateMutability": "nonpayable",
      "type": "function"
    },
    {
      "inputs": [],
      "name": "name",
      "outputs": [
        {
          "internalType": "string",
          "name": "",
          "type": "string"
        }
      ],
      "stateMutability": "view",
      "type": "function"
    },
    {
      "inputs": [
        {
          "internalType": "uint256",
          "name": "tokenId",
          "type": "uint256"
        }
      ],
      "name": "ownerOf",
      "outputs": [
        {
          "internalType": "address",
          "name": "",
          "type": "address"
        }
      ],
      "stateMutability": "view",
      "type": "function"
    },
    {
      "inputs": [
        {
          "internalType": "uint256",
          "name": "_tokenId",
          "type": "uint256"
        }
      ],
      "name": "placeBid",
      "outputs": [],
      "stateMutability": "payable",
      "type": "function"
    },
    {
      "inputs": [
        {
          "internalType": "address",
          "name": "from",
          "type": "address"
        },
        {
          "internalType": "address",
          "name": "to",
          "type": "address"
        },
        {
          "internalType": "uint256",
          "name": "tokenId",
          "type": "uint256"
        }
      ],
      "name": "safeTransferFrom",
      "outputs": [],
      "stateMutability": "nonpayable",
      "type": "function"
    },
    {
      "inputs": [
        {
          "internalType": "address",
          "name": "from",
          "type": "address"
        },
        {
          "internalType": "address",
          "name": "to",
          "type": "address"
        },
        {
          "internalType": "uint256",
          "name": "tokenId",
          "type": "uint256"
        },
        {
          "internalType": "bytes",
          "name": "_data",
          "type": "bytes"
        }
      ],
      "name": "safeTransferFrom",
      "outputs": [],
      "stateMutability": "nonpayable",
      "type": "function"
    },
    {
      "inputs": [
        {
          "internalType": "address",
          "name": "operator",
          "type": "address"
        },
        {
          "internalType": "bool",
          "name": "approved",
          "type": "bool"
        }
      ],
      "name": "setApprovalForAll",
      "outputs": [],
      "stateMutability": "nonpayable",
      "type": "function"
    },
    {
      "inputs": [
        {
          "internalType": "uint256",
          "name": "_tokenId",
          "type": "uint256"
        }
      ],
      "name": "settleAuction",
      "outputs": [],
      "stateMutability": "nonpayable",
      "type": "function"
    },
    {
      "inputs": [
        {
          "internalType": "bytes4",
          "name": "interfaceId",
          "type": "bytes4"
        }
      ],
      "name": "supportsInterface",
      "outputs": [
        {
          "internalType": "bool",
          "name": "",
          "type": "bool"
        }
      ],
      "stateMutability": "view",
      "type": "function"
    },
    {
      "inputs": [],
      "name": "symbol",
      "outputs": [
        {
          "internalType": "string",
          "name": "",
          "type": "string"
        }
      ],
      "stateMutability": "view",
      "type": "function"
    },
    {
      "inputs": [
        {
          "internalType": "uint256",
          "name": "tokenId",
          "type": "uint256"
        }
      ],
      "name": "tokenURI",
      "outputs": [
        {
          "internalType": "string",
          "name": "",
          "type": "string"
        }
      ],
      "stateMutability": "view",
      "type": "function"
    },
    {
      "inputs": [
        {
          "internalType": "address",
          "name": "from",
          "type": "address"
        },
        {
          "internalType": "address",
          "name": "to",
          "type": "address"
        },
        {
          "internalType": "uint256",
          "name": "tokenId",
          "type": "uint256"
        }
      ],
      "name": "transferFrom",
      "outputs": [],
      "stateMutability": "nonpayable",
      "type": "function"
    }
  ],
  "bytecode": "0x60806040523480156200001157600080fd5b506040518060400160405280601181526020017f4a6577656c566572736520546f6b656e730000000000000000000000000000008152506040518060400160405280600381526020017f4a57540000000000000000000000000000000000000000000000000000000000815250600160008190555081600190805190602001906200009e92919062000101565b508060029080519060200190620000b792919062000101565b50505033600860006101000a81548173ffffffffffffffffffffffffffffffffffffffff021916908373ffffffffffffffffffffffffffffffffffffffff16021790555062000216565b8280546200010f90620001b1565b90600052602060002090601f0160209004810192826200013357600085556200017f565b82601f106200014e57805160ff19168380011785556200017f565b828001600101855582156200017f579182015b828111156200017e57825182559160200191906001019062000161565b5b5090506200018e919062000192565b5090565b5b80821115620001ad57600081600090555060010162000193565b5090565b60006002820490506001821680620001ca57607f821691505b60208210811415620001e157620001e0620001e7565b5b50919050565b7f4e487b7100000000000000000000000000000000000000000000000000000000600052602260045260246000fd5b61507580620002266000396000f3fe6080604052600436106101355760003560e01c806342842e0e116100ab5780639979ef451161006f5780639979ef451461044f578063a22cb4651461046b578063b88d4fde14610494578063c123912b146104bd578063c87b56dd146104d9578063e985e9c51461051657610135565b806342842e0e146103585780636352211e1461038157806370a08231146103be57806395d89b41146103fb57806396b5a7551461042657610135565b806323b872dd116100fd57806323b872dd1461023157806325d112a91461025a5780632e993611146102855780632ff0cd3d146102ae57806333eba49a146102d75780633711feea1461031457610135565b806301ffc9a71461013a57806306fdde0314610177578063081812fc146101a2578063095ea7b3146101df57806317a273a214610208575b600080fd5b34801561014657600080fd5b50610161600480360381019061015c9190613379565b610553565b60405161016e9190613e41565b60405180910390f35b34801561018357600080fd5b5061018c610635565b6040516101999190613e5c565b60405180910390f35b3480156101ae57600080fd5b506101c960048036038101906101c4919061340c565b6106c7565b6040516101d69190613d5c565b60405180910390f35b3480156101eb57600080fd5b506102066004803603810190610201919061333d565b61074c565b005b34801561021457600080fd5b5061022f600480360381019061022a9190613435565b610864565b005b34801561023d57600080fd5b5061025860048036038101906102539190613237565b610991565b005b34801561026657600080fd5b5061026f6109f1565b60405161027c91906142df565b60405180910390f35b34801561029157600080fd5b506102ac60048036038101906102a7919061340c565b610a02565b005b3480156102ba57600080fd5b506102d560048036038101906102d09190613471565b610e07565b005b3480156102e357600080fd5b506102fe60048036038101906102f991906133cb565b611181565b60405161030b91906142df565b60405180910390f35b34801561032057600080fd5b5061033b6004803603810190610336919061340c565b611248565b60405161034f989796959493929190613d77565b60405180910390f35b34801561036457600080fd5b5061037f600480360381019061037a9190613237565b611332565b005b34801561038d57600080fd5b506103a860048036038101906103a3919061340c565b611352565b6040516103b59190613d5c565b60405180910390f35b3480156103ca57600080fd5b506103e560048036038101906103e091906131d2565b611404565b6040516103f291906142df565b60405180910390f35b34801561040757600080fd5b506104106114bc565b60405161041d9190613e5c565b60405180910390f35b34801561043257600080fd5b5061044d6004803603810190610448919061340c565b61154e565b005b6104696004803603810190610464919061340c565b611a18565b005b34801561047757600080fd5b50610492600480360381019061048d9190613301565b611e8b565b005b3480156104a057600080fd5b506104bb60048036038101906104b69190613286565b611ea1565b005b6104d760048036038101906104d2919061340c565b611f03565b005b3480156104e557600080fd5b5061050060048036038101906104fb919061340c565b6120a0565b60405161050d9190613e5c565b60405180910390f35b34801561052257600080fd5b5061053d600480360381019061053891906131fb565b6121f2565b60405161054a9190613e41565b60405180910390f35b60007f80ac58cd000000000000000000000000000000000000000000000000000000007bffffffffffffffffffffffffffffffffffffffffffffffffffffffff1916827bffffffffffffffffffffffffffffffffffffffffffffffffffffffff1916148061061e57507f5b5e139f000000000000000000000000000000000000000000000000000000007bffffffffffffffffffffffffffffffffffffffffffffffffffffffff1916827bffffffffffffffffffffffffffffffffffffffffffffffffffffffff1916145b8061062e575061062d82612286565b5b9050919050565b606060018054610644906145fb565b80601f0160208091040260200160405190810160405280929190818152602001828054610670906145fb565b80156106bd5780601f10610692576101008083540402835291602001916106bd565b820191906000526020600020905b8154815290600101906020018083116106a057829003601f168201915b5050505050905090565b60006106d2826122f0565b610711576040517f08c379a00000000000000000000000000000000000000000000000000000000081526004016107089061407e565b60405180910390fd5b6005600083815260200190815260200160002060009054906101000a900473ffffffffffffffffffffffffffffffffffffffff169050919050565b600061075782611352565b90508073ffffffffffffffffffffffffffffffffffffffff168373ffffffffffffffffffffffffffffffffffffffff1614156107c8576040517f08c379a00000000000000000000000000000000000000000000000000000000081526004016107bf906140be565b60405180910390fd5b8073ffffffffffffffffffffffffffffffffffffffff166107e761235c565b73ffffffffffffffffffffffffffffffffffffffff16148061081657506108158161081061235c565b6121f2565b5b610855576040517f08c379a000000000000000000000000000000000000000000000000000000000815260040161084c90613f7e565b60405180910390fd5b61085f8383612364565b505050565b600a600083815260200190815260200160002060010160019054906101000a900460ff16156108c8576040517f08c379a00000000000000000000000000000000000000000000000000000000081526004016108bf906141fe565b60405180910390fd5b80600a6000848152602001908152602001600020600001819055506001600a600084815260200190815260200160002060010160026101000a81548160ff0219169083151502179055506000600a600084815260200190815260200160002060010160006101000a81548160ff021916908315150217905550817f8e01b3f32eacc41fde12882a6992dca18945402225264768cc9ee52b3fa8757182600a60008681526020019081526020016000206040516109859291906142fa565b60405180910390a25050565b6109a261099c61235c565b8261241d565b6109e1576040517f08c379a00000000000000000000000000000000000000000000000000000000081526004016109d89061415e565b60405180910390fd5b6109ec8383836124fb565b505050565b60006109fd6009612762565b905090565b60026000541415610a48576040517f08c379a0000000000000000000000000000000000000000000000000000000008152600401610a3f906141de565b60405180910390fd5b60026000819055506000600b6000838152602001908152602001600020604051806101000160405290816000820160009054906101000a900473ffffffffffffffffffffffffffffffffffffffff1673ffffffffffffffffffffffffffffffffffffffff1673ffffffffffffffffffffffffffffffffffffffff1681526020016001820160009054906101000a900473ffffffffffffffffffffffffffffffffffffffff1673ffffffffffffffffffffffffffffffffffffffff1673ffffffffffffffffffffffffffffffffffffffff1681526020016001820160149054906101000a90046bffffffffffffffffffffffff166bffffffffffffffffffffffff166bffffffffffffffffffffffff1681526020016002820160009054906101000a90046bffffffffffffffffffffffff166bffffffffffffffffffffffff166bffffffffffffffffffffffff16815260200160028201600c9054906101000a900473ffffffffffffffffffffffffffffffffffffffff1673ffffffffffffffffffffffffffffffffffffffff1673ffffffffffffffffffffffffffffffffffffffff1681526020016003820160009054906101000a900465ffffffffffff1665ffffffffffff1665ffffffffffff16815260200160048201548152602001600582015481525050905060008160e0015190506000826020015190508260c001514211610c89576040517f08c379a0000000000000000000000000000000000000000000000000000000008152600401610c809061417e565b60405180910390fd5b8260a0015165ffffffffffff1682610ca191906143ed565b421015610ce3576040517f08c379a0000000000000000000000000000000000000000000000000000000008152600401610cda9061419e565b60405180910390fd5b8073ffffffffffffffffffffffffffffffffffffffff166108fc84606001516bffffffffffffffffffffffff169081150290604051600060405180830381858888f19350505050158015610d3b573d6000803e3d6000fd5b50610d4f8360000151846080015186610991565b6001600a600086815260200190815260200160002060010160006101000a81548160ff0219169083151502179055506000600a600086815260200190815260200160002060010160016101000a81548160ff021916908315150217905550837f0b83e80deabf998a1d0411756f7ce1c1fdea5f529e400280c95e041f9f5c309c84600a6000888152602001908152602001600020604051610df192919061425e565b60405180910390a2505050600160008190555050565b60026000541415610e4d576040517f08c379a0000000000000000000000000000000000000000000000000000000008152600401610e44906141de565b60405180910390fd5b60026000819055506000610e6084611352565b90508073ffffffffffffffffffffffffffffffffffffffff163373ffffffffffffffffffffffffffffffffffffffff161480610ea25750610ea181336121f2565b5b610ee1576040517f08c379a0000000000000000000000000000000000000000000000000000000008152600401610ed89061411e565b60405180910390fd5b600a600085815260200190815260200160002060010160029054906101000a900460ff1615610f45576040517f08c379a0000000000000000000000000000000000000000000000000000000008152600401610f3c90613e7e565b60405180910390fd5b82600b600086815260200190815260200160002060010160146101000a8154816bffffffffffffffffffffffff02191690836bffffffffffffffffffffffff16021790555081600b600086815260200190815260200160002060030160006101000a81548165ffffffffffff021916908365ffffffffffff16021790555080600b600086815260200190815260200160002060000160006101000a81548173ffffffffffffffffffffffffffffffffffffffff021916908373ffffffffffffffffffffffffffffffffffffffff16021790555080600b600086815260200190815260200160002060010160006101000a81548173ffffffffffffffffffffffffffffffffffffffff021916908373ffffffffffffffffffffffffffffffffffffffff16021790555042600b6000868152602001908152602001600020600401819055506001600a600086815260200190815260200160002060010160016101000a81548160ff0219169083151502179055506000600a600086815260200190815260200160002060010160006101000a81548160ff0219169083151502179055506000600a600086815260200190815260200160002060010160026101000a81548160ff021916908315150217905550837f12bedb883d50c3c29f913a30d4914962e41672207612a280e36a03b0c896f69b600b6000878152602001908152602001600020600a600088815260200190815260200160002060405161116b9291906142b4565b60405180910390a2506001600081905550505050565b6000600860009054906101000a900473ffffffffffffffffffffffffffffffffffffffff1673ffffffffffffffffffffffffffffffffffffffff163373ffffffffffffffffffffffffffffffffffffffff1614611213576040517f08c379a000000000000000000000000000000000000000000000000000000000815260040161120a90613ffe565b60405180910390fd5b61121d6009612770565b60006112296009612762565b90506112353382612786565b61123f8184612960565b80915050919050565b600b6020528060005260406000206000915090508060000160009054906101000a900473ffffffffffffffffffffffffffffffffffffffff16908060010160009054906101000a900473ffffffffffffffffffffffffffffffffffffffff16908060010160149054906101000a90046bffffffffffffffffffffffff16908060020160009054906101000a90046bffffffffffffffffffffffff169080600201600c9054906101000a900473ffffffffffffffffffffffffffffffffffffffff16908060030160009054906101000a900465ffffffffffff16908060040154908060050154905088565b61134d83838360405180602001604052806000815250611ea1565b505050565b6000806003600084815260200190815260200160002060009054906101000a900473ffffffffffffffffffffffffffffffffffffffff169050600073ffffffffffffffffffffffffffffffffffffffff168173ffffffffffffffffffffffffffffffffffffffff1614156113fb576040517f08c379a00000000000000000000000000000000000000000000000000000000081526004016113f290613fbe565b60405180910390fd5b80915050919050565b60008073ffffffffffffffffffffffffffffffffffffffff168273ffffffffffffffffffffffffffffffffffffffff161415611475576040517f08c379a000000000000000000000000000000000000000000000000000000000815260040161146c90613f9e565b60405180910390fd5b600460008373ffffffffffffffffffffffffffffffffffffffff1673ffffffffffffffffffffffffffffffffffffffff168152602001908152602001600020549050919050565b6060600280546114cb906145fb565b80601f01602080910402602001604051908101604052809291908181526020018280546114f7906145fb565b80156115445780601f1061151957610100808354040283529160200191611544565b820191906000526020600020905b81548152906001019060200180831161152757829003601f168201915b5050505050905090565b60026000541415611594576040517f08c379a000000000000000000000000000000000000000000000000000000000815260040161158b906141de565b60405180910390fd5b60026000819055506000600b6000838152602001908152602001600020604051806101000160405290816000820160009054906101000a900473ffffffffffffffffffffffffffffffffffffffff1673ffffffffffffffffffffffffffffffffffffffff1673ffffffffffffffffffffffffffffffffffffffff1681526020016001820160009054906101000a900473ffffffffffffffffffffffffffffffffffffffff1673ffffffffffffffffffffffffffffffffffffffff1673ffffffffffffffffffffffffffffffffffffffff1681526020016001820160149054906101000a90046bffffffffffffffffffffffff166bffffffffffffffffffffffff166bffffffffffffffffffffffff1681526020016002820160009054906101000a90046bffffffffffffffffffffffff166bffffffffffffffffffffffff166bffffffffffffffffffffffff16815260200160028201600c9054906101000a900473ffffffffffffffffffffffffffffffffffffffff1673ffffffffffffffffffffffffffffffffffffffff1673ffffffffffffffffffffffffffffffffffffffff1681526020016003820160009054906101000a900465ffffffffffff1665ffffffffffff1665ffffffffffff16815260200160048201548152602001600582015481525050905060008160e00151146117c4576040517f08c379a00000000000000000000000000000000000000000000000000000000081526004016117bb9061413e565b60405180910390fd5b806000015173ffffffffffffffffffffffffffffffffffffffff163373ffffffffffffffffffffffffffffffffffffffff161480611835575061180682611352565b73ffffffffffffffffffffffffffffffffffffffff163373ffffffffffffffffffffffffffffffffffffffff16145b611874576040517f08c379a000000000000000000000000000000000000000000000000000000000815260040161186b9061423e565b60405180910390fd5b817faf95ad99eb17a5d6b9694dca54822c9eb62263232509b8fbd482bc71b1b226e382600a60008681526020019081526020016000206040516118b892919061425e565b60405180910390a2600b6000838152602001908152602001600020600080820160006101000a81549073ffffffffffffffffffffffffffffffffffffffff02191690556001820160006101000a81549073ffffffffffffffffffffffffffffffffffffffff02191690556001820160146101000a8154906bffffffffffffffffffffffff02191690556002820160006101000a8154906bffffffffffffffffffffffff021916905560028201600c6101000a81549073ffffffffffffffffffffffffffffffffffffffff02191690556003820160006101000a81549065ffffffffffff0219169055600482016000905560058201600090555050600a60008381526020019081526020016000206000808201600090556001820160006101000a81549060ff02191690556001820160016101000a81549060ff02191690556001820160026101000a81549060ff0219169055505050600160008190555050565b60026000541415611a5e576040517f08c379a0000000000000000000000000000000000000000000000000000000008152600401611a55906141de565b60405180910390fd5b60026000819055506000600b6000838152602001908152602001600020905060008160000160009054906101000a900473ffffffffffffffffffffffffffffffffffffffff169050600073ffffffffffffffffffffffffffffffffffffffff168173ffffffffffffffffffffffffffffffffffffffff161415611b16576040517f08c379a0000000000000000000000000000000000000000000000000000000008152600401611b0d9061421e565b60405180910390fd5b8073ffffffffffffffffffffffffffffffffffffffff163373ffffffffffffffffffffffffffffffffffffffff161415611b85576040517f08c379a0000000000000000000000000000000000000000000000000000000008152600401611b7c906141be565b60405180910390fd5b8160040154421015611b9657600080fd5b60008260050154905060008360030160009054906101000a900465ffffffffffff1665ffffffffffff1690506000821415611c4c578360010160149054906101000a90046bffffffffffffffffffffffff166bffffffffffffffffffffffff16341015611c38576040517f08c379a0000000000000000000000000000000000000000000000000000000008152600401611c2f906140de565b60405180910390fd5b4263ffffffff168460050181905550611dba565b8082611c5891906143ed565b4210611c99576040517f08c379a0000000000000000000000000000000000000000000000000000000008152600401611c909061401e565b60405180910390fd5b60008460020160009054906101000a90046bffffffffffffffffffffffff166bffffffffffffffffffffffff16905060006064600a830281611d04577f4e487b7100000000000000000000000000000000000000000000000000000000600052601260045260246000fd5b048201905080341015611d4c576040517f08c379a0000000000000000000000000000000000000000000000000000000008152600401611d43906140fe565b60405180910390fd5b85600201600c9054906101000a900473ffffffffffffffffffffffffffffffffffffffff1673ffffffffffffffffffffffffffffffffffffffff166108fc839081150290604051600060405180830381858888f19350505050158015611db6573d6000803e3d6000fd5b5050505b348460020160006101000a8154816bffffffffffffffffffffffff02191690836bffffffffffffffffffffffff1602179055503384600201600c6101000a81548173ffffffffffffffffffffffffffffffffffffffff021916908373ffffffffffffffffffffffffffffffffffffffff160217905550847f7b4a7a4b21cb505639f80e5de94dbc2a96f464e2af189c0f07f1889dd5d8347485600a6000898152602001908152602001600020604051611e74929190614289565b60405180910390a250505050600160008190555050565b611e9d611e9661235c565b83836129d4565b5050565b611eb2611eac61235c565b8361241d565b611ef1576040517f08c379a0000000000000000000000000000000000000000000000000000000008152600401611ee89061415e565b60405180910390fd5b611efd84848484612b41565b50505050565b600a6000828152602001908152602001600020600001543414611f5b576040517f08c379a0000000000000000000000000000000000000000000000000000000008152600401611f5290613efe565b60405180910390fd5b6000611f6682611352565b90508073ffffffffffffffffffffffffffffffffffffffff163373ffffffffffffffffffffffffffffffffffffffff1614611fa057600080fd5b611fab813384610991565b6001600a600084815260200190815260200160002060010160006101000a81548160ff0219169083151502179055506000600a600084815260200190815260200160002060010160026101000a81548160ff0219169083151502179055508073ffffffffffffffffffffffffffffffffffffffff166108fc349081150290604051600060405180830381858888f1935050505015801561204f573d6000803e3d6000fd5b50817f614a370bba34ad270b9968eff880cddb293e5e7553891b19aa05ea566b9f080334600a60008681526020019081526020016000206040516120949291906142fa565b60405180910390a25050565b60606120ab826122f0565b6120ea576040517f08c379a00000000000000000000000000000000000000000000000000000000081526004016120e19061405e565b60405180910390fd5b600060076000848152602001908152602001600020805461210a906145fb565b80601f0160208091040260200160405190810160405280929190818152602001828054612136906145fb565b80156121835780601f1061215857610100808354040283529160200191612183565b820191906000526020600020905b81548152906001019060200180831161216657829003601f168201915b505050505090506000612194612b9d565b90506000815114156121aa5781925050506121ed565b6000825111156121df5780826040516020016121c7929190613d38565b604051602081830303815290604052925050506121ed565b6121e884612bb4565b925050505b919050565b6000600660008473ffffffffffffffffffffffffffffffffffffffff1673ffffffffffffffffffffffffffffffffffffffff16815260200190815260200160002060008373ffffffffffffffffffffffffffffffffffffffff1673ffffffffffffffffffffffffffffffffffffffff16815260200190815260200160002060009054906101000a900460ff16905092915050565b60007f01ffc9a7000000000000000000000000000000000000000000000000000000007bffffffffffffffffffffffffffffffffffffffffffffffffffffffff1916827bffffffffffffffffffffffffffffffffffffffffffffffffffffffff1916149050919050565b60008073ffffffffffffffffffffffffffffffffffffffff166003600084815260200190815260200160002060009054906101000a900473ffffffffffffffffffffffffffffffffffffffff1673ffffffffffffffffffffffffffffffffffffffff1614159050919050565b600033905090565b816005600083815260200190815260200160002060006101000a81548173ffffffffffffffffffffffffffffffffffffffff021916908373ffffffffffffffffffffffffffffffffffffffff160217905550808273ffffffffffffffffffffffffffffffffffffffff166123d783611352565b73ffffffffffffffffffffffffffffffffffffffff167f8c5be1e5ebec7d5bd14f71427d1e84f3dd0314c0f7b2291e5b200ac8c7c3b92560405160405180910390a45050565b6000612428826122f0565b612467576040517f08c379a000000000000000000000000000000000000000000000000000000000815260040161245e90613f5e565b60405180910390fd5b600061247283611352565b90508073ffffffffffffffffffffffffffffffffffffffff168473ffffffffffffffffffffffffffffffffffffffff1614806124b457506124b381856121f2565b5b806124f257508373ffffffffffffffffffffffffffffffffffffffff166124da846106c7565b73ffffffffffffffffffffffffffffffffffffffff16145b91505092915050565b8273ffffffffffffffffffffffffffffffffffffffff1661251b82611352565b73ffffffffffffffffffffffffffffffffffffffff1614612571576040517f08c379a000000000000000000000000000000000000000000000000000000000815260040161256890613ebe565b60405180910390fd5b600073ffffffffffffffffffffffffffffffffffffffff168273ffffffffffffffffffffffffffffffffffffffff1614156125e1576040517f08c379a00000000000000000000000000000000000000000000000000000000081526004016125d890613f1e565b60405180910390fd5b6125ec838383612c5b565b6125f7600082612364565b6001600460008573ffffffffffffffffffffffffffffffffffffffff1673ffffffffffffffffffffffffffffffffffffffff16815260200190815260200160002060008282546126479190614474565b925050819055506001600460008473ffffffffffffffffffffffffffffffffffffffff1673ffffffffffffffffffffffffffffffffffffffff168152602001908152602001600020600082825461269e91906143ed565b92505081905550816003600083815260200190815260200160002060006101000a81548173ffffffffffffffffffffffffffffffffffffffff021916908373ffffffffffffffffffffffffffffffffffffffff160217905550808273ffffffffffffffffffffffffffffffffffffffff168473ffffffffffffffffffffffffffffffffffffffff167fddf252ad1be2c89b69c2b068fc378daa952ba7f163c4a11628f55a4df523b3ef60405160405180910390a461275d838383612c60565b505050565b600081600001549050919050565b6001816000016000828254019250508190555050565b600073ffffffffffffffffffffffffffffffffffffffff168273ffffffffffffffffffffffffffffffffffffffff1614156127f6576040517f08c379a00000000000000000000000000000000000000000000000000000000081526004016127ed9061403e565b60405180910390fd5b6127ff816122f0565b1561283f576040517f08c379a000000000000000000000000000000000000000000000000000000000815260040161283690613ede565b60405180910390fd5b61284b60008383612c5b565b6001600460008473ffffffffffffffffffffffffffffffffffffffff1673ffffffffffffffffffffffffffffffffffffffff168152602001908152602001600020600082825461289b91906143ed565b92505081905550816003600083815260200190815260200160002060006101000a81548173ffffffffffffffffffffffffffffffffffffffff021916908373ffffffffffffffffffffffffffffffffffffffff160217905550808273ffffffffffffffffffffffffffffffffffffffff16600073ffffffffffffffffffffffffffffffffffffffff167fddf252ad1be2c89b69c2b068fc378daa952ba7f163c4a11628f55a4df523b3ef60405160405180910390a461295c60008383612c60565b5050565b612969826122f0565b6129a8576040517f08c379a000000000000000000000000000000000000000000000000000000000815260040161299f90613fde565b60405180910390fd5b806007600084815260200190815260200160002090805190602001906129cf929190612fcc565b505050565b8173ffffffffffffffffffffffffffffffffffffffff168373ffffffffffffffffffffffffffffffffffffffff161415612a43576040517f08c379a0000000000000000000000000000000000000000000000000000000008152600401612a3a90613f3e565b60405180910390fd5b80600660008573ffffffffffffffffffffffffffffffffffffffff1673ffffffffffffffffffffffffffffffffffffffff16815260200190815260200160002060008473ffffffffffffffffffffffffffffffffffffffff1673ffffffffffffffffffffffffffffffffffffffff16815260200190815260200160002060006101000a81548160ff0219169083151502179055508173ffffffffffffffffffffffffffffffffffffffff168373ffffffffffffffffffffffffffffffffffffffff167f17307eab39ab6107e8899845ad3d59bd9653f200f220920489ca2b5937696c3183604051612b349190613e41565b60405180910390a3505050565b612b4c8484846124fb565b612b5884848484612c65565b612b97576040517f08c379a0000000000000000000000000000000000000000000000000000000008152600401612b8e90613e9e565b60405180910390fd5b50505050565b606060405180602001604052806000815250905090565b6060612bbf826122f0565b612bfe576040517f08c379a0000000000000000000000000000000000000000000000000000000008152600401612bf59061409e565b60405180910390fd5b6000612c08612b9d565b90506000815111612c285760405180602001604052806000815250612c53565b80612c3284612dfc565b604051602001612c43929190613d38565b6040516020818303038152906040525b915050919050565b505050565b505050565b6000612c868473ffffffffffffffffffffffffffffffffffffffff16612fa9565b15612def578373ffffffffffffffffffffffffffffffffffffffff1663150b7a02612caf61235c565b8786866040518563ffffffff1660e01b8152600401612cd19493929190613df5565b602060405180830381600087803b158015612ceb57600080fd5b505af1925050508015612d1c57506040513d601f19601f82011682018060405250810190612d1991906133a2565b60015b612d9f573d8060008114612d4c576040519150601f19603f3d011682016040523d82523d6000602084013e612d51565b606091505b50600081511415612d97576040517f08c379a0000000000000000000000000000000000000000000000000000000008152600401612d8e90613e9e565b60405180910390fd5b805181602001fd5b63150b7a0260e01b7bffffffffffffffffffffffffffffffffffffffffffffffffffffffff1916817bffffffffffffffffffffffffffffffffffffffffffffffffffffffff191614915050612df4565b600190505b949350505050565b60606000821415612e44576040518060400160405280600181526020017f30000000000000000000000000000000000000000000000000000000000000008152509050612fa4565b600082905060005b60008214612e76578080612e5f90614748565b915050600a82612e6f9190614443565b9150612e4c565b60008167ffffffffffffffff811115612eb8577f4e487b7100000000000000000000000000000000000000000000000000000000600052604160045260246000fd5b6040519080825280601f01601f191660200182016040528015612eea5781602001600182028036833780820191505090505b5090505b60008514612f9d57600182612f039190614474565b9150600a85612f129190614791565b6030612f1e91906143ed565b60f81b818381518110612f5a577f4e487b7100000000000000000000000000000000000000000000000000000000600052603260045260246000fd5b60200101907effffffffffffffffffffffffffffffffffffffffffffffffffffffffffffff1916908160001a905350600a85612f969190614443565b9450612eee565b8093505050505b919050565b6000808273ffffffffffffffffffffffffffffffffffffffff163b119050919050565b828054612fd8906145fb565b90600052602060002090601f016020900481019282612ffa5760008555613041565b82601f1061301357805160ff1916838001178555613041565b82800160010185558215613041579182015b82811115613040578251825591602001919060010190613025565b5b50905061304e9190613052565b5090565b5b8082111561306b576000816000905550600101613053565b5090565b600061308261307d84614348565b614323565b90508281526020810184848401111561309a57600080fd5b6130a58482856145b9565b509392505050565b60006130c06130bb84614379565b614323565b9050828152602081018484840111156130d857600080fd5b6130e38482856145b9565b509392505050565b6000813590506130fa81614fb5565b92915050565b60008135905061310f81614fcc565b92915050565b60008135905061312481614fe3565b92915050565b60008151905061313981614fe3565b92915050565b600082601f83011261315057600080fd5b813561316084826020860161306f565b91505092915050565b600082601f83011261317a57600080fd5b813561318a8482602086016130ad565b91505092915050565b6000813590506131a281614ffa565b92915050565b6000813590506131b781615011565b92915050565b6000813590506131cc81615028565b92915050565b6000602082840312156131e457600080fd5b60006131f2848285016130eb565b91505092915050565b6000806040838503121561320e57600080fd5b600061321c858286016130eb565b925050602061322d858286016130eb565b9150509250929050565b60008060006060848603121561324c57600080fd5b600061325a868287016130eb565b935050602061326b868287016130eb565b925050604061327c86828701613193565b9150509250925092565b6000806000806080858703121561329c57600080fd5b60006132aa878288016130eb565b94505060206132bb878288016130eb565b93505060406132cc87828801613193565b925050606085013567ffffffffffffffff8111156132e957600080fd5b6132f58782880161313f565b91505092959194509250565b6000806040838503121561331457600080fd5b6000613322858286016130eb565b925050602061333385828601613100565b9150509250929050565b6000806040838503121561335057600080fd5b600061335e858286016130eb565b925050602061336f85828601613193565b9150509250929050565b60006020828403121561338b57600080fd5b600061339984828501613115565b91505092915050565b6000602082840312156133b457600080fd5b60006133c28482850161312a565b91505092915050565b6000602082840312156133dd57600080fd5b600082013567ffffffffffffffff8111156133f757600080fd5b61340384828501613169565b91505092915050565b60006020828403121561341e57600080fd5b600061342c84828501613193565b91505092915050565b6000806040838503121561344857600080fd5b600061345685828601613193565b925050602061346785828601613193565b9150509250929050565b60008060006060848603121561348657600080fd5b600061349486828701613193565b93505060206134a5868287016131bd565b92505060406134b6868287016131a8565b9150509250925092565b6134c98161451b565b82525050565b6134d88161451b565b82525050565b6134e781614509565b82525050565b6134f68161452d565b82525050565b6135058161452d565b82525050565b6000613516826143aa565b61352081856143c0565b93506135308185602086016145c8565b6135398161487e565b840191505092915050565b600061354f826143b5565b61355981856143d1565b93506135698185602086016145c8565b6135728161487e565b840191505092915050565b6000613588826143b5565b61359281856143e2565b93506135a28185602086016145c8565b80840191505092915050565b60006135bb6016836143d1565b91506135c6826148d0565b602082019050919050565b60006135de6032836143d1565b91506135e9826148f9565b604082019050919050565b60006136016025836143d1565b915061360c82614948565b604082019050919050565b6000613624601c836143d1565b915061362f82614997565b602082019050919050565b6000613647600d836143d1565b9150613652826149c0565b602082019050919050565b600061366a6024836143d1565b9150613675826149e9565b604082019050919050565b600061368d6019836143d1565b915061369882614a38565b602082019050919050565b60006136b0602c836143d1565b91506136bb82614a61565b604082019050919050565b60006136d36038836143d1565b91506136de82614ab0565b604082019050919050565b60006136f6602a836143d1565b915061370182614aff565b604082019050919050565b60006137196029836143d1565b915061372482614b4e565b604082019050919050565b600061373c602e836143d1565b915061374782614b9d565b604082019050919050565b600061375f6012836143d1565b915061376a82614bec565b602082019050919050565b6000613782600c836143d1565b915061378d82614c15565b602082019050919050565b60006137a56020836143d1565b91506137b082614c3e565b602082019050919050565b60006137c86031836143d1565b91506137d382614c67565b604082019050919050565b60006137eb602c836143d1565b91506137f682614cb6565b604082019050919050565b600061380e602f836143d1565b915061381982614d05565b604082019050919050565b60006138316021836143d1565b915061383c82614d54565b604082019050919050565b60006138546015836143d1565b915061385f82614da3565b602082019050919050565b60006138776013836143d1565b915061388282614dcc565b602082019050919050565b600061389a601c836143d1565b91506138a582614df5565b602082019050919050565b60006138bd600f836143d1565b91506138c882614e1e565b602082019050919050565b60006138e06031836143d1565b91506138eb82614e47565b604082019050919050565b60006139036013836143d1565b915061390e82614e96565b602082019050919050565b60006139266010836143d1565b915061393182614ebf565b602082019050919050565b60006139496011836143d1565b915061395482614ee8565b602082019050919050565b600061396c601f836143d1565b915061397782614f11565b602082019050919050565b600061398f600f836143d1565b915061399a82614f3a565b602082019050919050565b60006139b26016836143d1565b91506139bd82614f63565b602082019050919050565b60006139d5601a836143d1565b91506139e082614f8c565b602082019050919050565b61010082016000820151613a0260008501826134c0565b506020820151613a1560208501826134c0565b506040820151613a286040850182613d1a565b506060820151613a3b6060850182613d1a565b506080820151613a4e60808501826134c0565b5060a0820151613a6160a0850182613cfc565b5060c0820151613a7460c0850182613cde565b5060e0820151613a8760e0850182613cde565b50505050565b61010082016000808301549050613aa38161462d565b613ab060008601826134c0565b5060018301549050613ac18161462d565b613ace60208601826134c0565b50613ad8816146e3565b613ae56040860182613d1a565b5060028301549050613af681614695565b613b036060860182613d1a565b50613b0d816146af565b613b1a60808601826134c0565b5060038301549050613b2b8161467b565b613b3860a0860182613cfc565b5060048301549050613b4981614661565b613b5660c0860182613cde565b5060058301549050613b6781614661565b613b7460e0860182613cde565b5050505050565b61010082016000808301549050613b918161462d565b613b9e60008601826134c0565b5060018301549050613baf8161462d565b613bbc60208601826134c0565b50613bc6816146e3565b613bd36040860182613d1a565b5060028301549050613be481614695565b613bf16060860182613d1a565b50613bfb816146af565b613c0860808601826134c0565b5060038301549050613c198161467b565b613c2660a0860182613cfc565b5060048301549050613c3781614661565b613c4460c0860182613cde565b5060058301549050613c5581614661565b613c6260e0860182613cde565b5050505050565b608082016000808301549050613c7e81614661565b613c8b6000860182613cde565b5060018301549050613c9c81614647565b613ca960208601826134ed565b50613cb3816146c9565b613cc060408601826134ed565b50613cca816146fd565b613cd760608601826134ed565b5050505050565b613ce781614585565b82525050565b613cf681614585565b82525050565b613d058161458f565b82525050565b613d148161458f565b82525050565b613d23816145a1565b82525050565b613d32816145a1565b82525050565b6000613d44828561357d565b9150613d50828461357d565b91508190509392505050565b6000602082019050613d7160008301846134de565b92915050565b600061010082019050613d8d600083018b6134cf565b613d9a602083018a6134cf565b613da76040830189613d29565b613db46060830188613d29565b613dc160808301876134cf565b613dce60a0830186613d0b565b613ddb60c0830185613ced565b613de860e0830184613ced565b9998505050505050505050565b6000608082019050613e0a60008301876134de565b613e1760208301866134de565b613e246040830185613ced565b8181036060830152613e36818461350b565b905095945050505050565b6000602082019050613e5660008301846134fc565b92915050565b60006020820190508181036000830152613e768184613544565b905092915050565b60006020820190508181036000830152613e97816135ae565b9050919050565b60006020820190508181036000830152613eb7816135d1565b9050919050565b60006020820190508181036000830152613ed7816135f4565b9050919050565b60006020820190508181036000830152613ef781613617565b9050919050565b60006020820190508181036000830152613f178161363a565b9050919050565b60006020820190508181036000830152613f378161365d565b9050919050565b60006020820190508181036000830152613f5781613680565b9050919050565b60006020820190508181036000830152613f77816136a3565b9050919050565b60006020820190508181036000830152613f97816136c6565b9050919050565b60006020820190508181036000830152613fb7816136e9565b9050919050565b60006020820190508181036000830152613fd78161370c565b9050919050565b60006020820190508181036000830152613ff78161372f565b9050919050565b6000602082019050818103600083015261401781613752565b9050919050565b6000602082019050818103600083015261403781613775565b9050919050565b6000602082019050818103600083015261405781613798565b9050919050565b60006020820190508181036000830152614077816137bb565b9050919050565b60006020820190508181036000830152614097816137de565b9050919050565b600060208201905081810360008301526140b781613801565b9050919050565b600060208201905081810360008301526140d781613824565b9050919050565b600060208201905081810360008301526140f781613847565b9050919050565b600060208201905081810360008301526141178161386a565b9050919050565b600060208201905081810360008301526141378161388d565b9050919050565b60006020820190508181036000830152614157816138b0565b9050919050565b60006020820190508181036000830152614177816138d3565b9050919050565b60006020820190508181036000830152614197816138f6565b9050919050565b600060208201905081810360008301526141b781613919565b9050919050565b600060208201905081810360008301526141d78161393c565b9050919050565b600060208201905081810360008301526141f78161395f565b9050919050565b6000602082019050818103600083015261421781613982565b9050919050565b60006020820190508181036000830152614237816139a5565b9050919050565b60006020820190508181036000830152614257816139c8565b9050919050565b60006101808201905061427460008301856139eb565b614282610100830184613c69565b9392505050565b60006101808201905061429f6000830185613a8d565b6142ad610100830184613c69565b9392505050565b6000610180820190506142ca6000830185613b7b565b6142d8610100830184613c69565b9392505050565b60006020820190506142f46000830184613ced565b92915050565b600060a08201905061430f6000830185613ced565b61431c6020830184613c69565b9392505050565b600061432d61433e565b90506143398282614717565b919050565b6000604051905090565b600067ffffffffffffffff8211156143635761436261484f565b5b61436c8261487e565b9050602081019050919050565b600067ffffffffffffffff8211156143945761439361484f565b5b61439d8261487e565b9050602081019050919050565b600081519050919050565b600081519050919050565b600082825260208201905092915050565b600082825260208201905092915050565b600081905092915050565b60006143f882614585565b915061440383614585565b9250827fffffffffffffffffffffffffffffffffffffffffffffffffffffffffffffffff03821115614438576144376147c2565b5b828201905092915050565b600061444e82614585565b915061445983614585565b925082614469576144686147f1565b5b828204905092915050565b600061447f82614585565b915061448a83614585565b92508282101561449d5761449c6147c2565b5b828203905092915050565b600073ffffffffffffffffffffffffffffffffffffffff82169050919050565b600060ff82169050919050565b6000819050919050565b600065ffffffffffff82169050919050565b60006bffffffffffffffffffffffff82169050919050565b600061451482614565565b9050919050565b600061452682614565565b9050919050565b60008115159050919050565b60007fffffffff0000000000000000000000000000000000000000000000000000000082169050919050565b600073ffffffffffffffffffffffffffffffffffffffff82169050919050565b6000819050919050565b600065ffffffffffff82169050919050565b60006bffffffffffffffffffffffff82169050919050565b82818337600083830152505050565b60005b838110156145e65780820151818401526020810190506145cb565b838111156145f5576000848401525b50505050565b6000600282049050600182168061461357607f821691505b6020821081141561462757614626614820565b5b50919050565b600061464061463b8361488f565b6144a8565b9050919050565b600061465a6146558361488f565b6144c8565b9050919050565b600061467461466f8361488f565b6144d5565b9050919050565b600061468e6146898361488f565b6144df565b9050919050565b60006146a86146a38361488f565b6144f1565b9050919050565b60006146c26146bd836148c3565b6144a8565b9050919050565b60006146dc6146d7836148b6565b6144c8565b9050919050565b60006146f66146f18361489c565b6144f1565b9050919050565b600061471061470b836148a9565b6144c8565b9050919050565b6147208261487e565b810181811067ffffffffffffffff8211171561473f5761473e61484f565b5b80604052505050565b600061475382614585565b91507fffffffffffffffffffffffffffffffffffffffffffffffffffffffffffffffff821415614786576147856147c2565b5b600182019050919050565b600061479c82614585565b91506147a783614585565b9250826147b7576147b66147f1565b5b828206905092915050565b7f4e487b7100000000000000000000000000000000000000000000000000000000600052601160045260246000fd5b7f4e487b7100000000000000000000000000000000000000000000000000000000600052601260045260246000fd5b7f4e487b7100000000000000000000000000000000000000000000000000000000600052602260045260246000fd5b7f4e487b7100000000000000000000000000000000000000000000000000000000600052604160045260246000fd5b6000601f19601f8301169050919050565b60008160001c9050919050565b60008160a01c9050919050565b60008160101c9050919050565b60008160081c9050919050565b60008160601c9050919050565b7f414c52454144595f4f4e5f4449524543545f53414c4500000000000000000000600082015250565b7f4552433732313a207472616e7366657220746f206e6f6e20455243373231526560008201527f63656976657220696d706c656d656e7465720000000000000000000000000000602082015250565b7f4552433732313a207472616e736665722066726f6d20696e636f72726563742060008201527f6f776e6572000000000000000000000000000000000000000000000000000000602082015250565b7f4552433732313a20746f6b656e20616c7265616479206d696e74656400000000600082015250565b7f50524943455f4e4f545f4d455400000000000000000000000000000000000000600082015250565b7f4552433732313a207472616e7366657220746f20746865207a65726f2061646460008201527f7265737300000000000000000000000000000000000000000000000000000000602082015250565b7f4552433732313a20617070726f766520746f2063616c6c657200000000000000600082015250565b7f4552433732313a206f70657261746f7220717565727920666f72206e6f6e657860008201527f697374656e7420746f6b656e0000000000000000000000000000000000000000602082015250565b7f4552433732313a20617070726f76652063616c6c6572206973206e6f74206f7760008201527f6e6572206e6f7220617070726f76656420666f7220616c6c0000000000000000602082015250565b7f4552433732313a2062616c616e636520717565727920666f7220746865207a6560008201527f726f206164647265737300000000000000000000000000000000000000000000602082015250565b7f4552433732313a206f776e657220717565727920666f72206e6f6e657869737460008201527f656e7420746f6b656e0000000000000000000000000000000000000000000000602082015250565b7f45524337323155524953746f726167653a2055524920736574206f66206e6f6e60008201527f6578697374656e7420746f6b656e000000000000000000000000000000000000602082015250565b7f4f4e4c595f4f574e45525f43414e5f4249440000000000000000000000000000600082015250565b7f41554354494f4e5f4f5645520000000000000000000000000000000000000000600082015250565b7f4552433732313a206d696e7420746f20746865207a65726f2061646472657373600082015250565b7f45524337323155524953746f726167653a2055524920717565727920666f722060008201527f6e6f6e6578697374656e7420746f6b656e000000000000000000000000000000602082015250565b7f4552433732313a20617070726f76656420717565727920666f72206e6f6e657860008201527f697374656e7420746f6b656e0000000000000000000000000000000000000000602082015250565b7f4552433732314d657461646174613a2055524920717565727920666f72206e6f60008201527f6e6578697374656e7420746f6b656e0000000000000000000000000000000000602082015250565b7f4552433732313a20617070726f76616c20746f2063757272656e74206f776e6560008201527f7200000000000000000000000000000000000000000000000000000000000000602082015250565b7f524553455256455f50524943455f4e4f545f4d45540000000000000000000000600082015250565b7f4d494e494d554d5f4249445f4e4f545f4d455400000000000000000000000000600082015250565b7f4f4e4c595f544f4b454e5f4f574e45525f4f525f4f50455241544f5200000000600082015250565b7f41554354494f4e5f535441525445440000000000000000000000000000000000600082015250565b7f4552433732313a207472616e736665722063616c6c6572206973206e6f74206f60008201527f776e6572206e6f7220617070726f766564000000000000000000000000000000602082015250565b7f41554354494f4e5f4e4f545f5354415254454400000000000000000000000000600082015250565b7f41554354494f4e5f4e4f545f4f56455200000000000000000000000000000000600082015250565b7f53454c4c45525f43414e4e4f545f424944000000000000000000000000000000600082015250565b7f5265656e7472616e637947756172643a207265656e7472616e742063616c6c00600082015250565b7f4954454d5f494e5f41554354494f4e0000000000000000000000000000000000600082015250565b7f41554354494f4e5f444f45535f4e4f545f455849535400000000000000000000600082015250565b7f4f4e4c595f53454c4c45525f4f525f544f4b454e5f4f574e4552000000000000600082015250565b614fbe81614509565b8114614fc957600080fd5b50565b614fd58161452d565b8114614fe057600080fd5b50565b614fec81614539565b8114614ff757600080fd5b50565b61500381614585565b811461500e57600080fd5b50565b61501a8161458f565b811461502557600080fd5b50565b615031816145a1565b811461503c57600080fd5b5056fea264697066735822122070de93aaa016ea315e6e38721b99d8560962cbaa4ddf5ccbdbdebcd9416cd25a64736f6c63430008040033",
  "linkReferences": {},
  "deployedLinkReferences": {}
}